{
  "contractName": "BaseRegistrarImplementation",
  "abi": [
    {
      "constant": true,
      "inputs": [
        {
          "name": "tokenId",
          "type": "uint256"
        }
      ],
      "name": "getApproved",
      "outputs": [
        {
          "name": "",
          "type": "address"
        }
      ],
      "payable": false,
      "stateMutability": "view",
      "type": "function"
    },
    {
      "constant": false,
      "inputs": [
        {
          "name": "to",
          "type": "address"
        },
        {
          "name": "tokenId",
          "type": "uint256"
        }
      ],
      "name": "approve",
      "outputs": [],
      "payable": false,
      "stateMutability": "nonpayable",
      "type": "function"
    },
    {
      "constant": false,
      "inputs": [
        {
          "name": "from",
          "type": "address"
        },
        {
          "name": "to",
          "type": "address"
        },
        {
          "name": "tokenId",
          "type": "uint256"
        }
      ],
      "name": "transferFrom",
      "outputs": [],
      "payable": false,
      "stateMutability": "nonpayable",
      "type": "function"
    },
    {
      "constant": true,
      "inputs": [],
      "name": "ens",
      "outputs": [
        {
          "name": "",
          "type": "address"
        }
      ],
      "payable": false,
      "stateMutability": "view",
      "type": "function"
    },
    {
      "constant": false,
      "inputs": [
        {
          "name": "from",
          "type": "address"
        },
        {
          "name": "to",
          "type": "address"
        },
        {
          "name": "tokenId",
          "type": "uint256"
        }
      ],
      "name": "safeTransferFrom",
      "outputs": [],
      "payable": false,
      "stateMutability": "nonpayable",
      "type": "function"
    },
    {
      "constant": true,
      "inputs": [],
      "name": "transferPeriodEnds",
      "outputs": [
        {
          "name": "",
          "type": "uint256"
        }
      ],
      "payable": false,
      "stateMutability": "view",
      "type": "function"
    },
    {
      "constant": true,
      "inputs": [],
      "name": "MIGRATION_LOCK_PERIOD",
      "outputs": [
        {
          "name": "",
          "type": "uint256"
        }
      ],
      "payable": false,
      "stateMutability": "view",
      "type": "function"
    },
    {
      "constant": true,
      "inputs": [
        {
          "name": "owner",
          "type": "address"
        }
      ],
      "name": "balanceOf",
      "outputs": [
        {
          "name": "",
          "type": "uint256"
        }
      ],
      "payable": false,
      "stateMutability": "view",
      "type": "function"
    },
    {
      "constant": false,
      "inputs": [],
      "name": "renounceOwnership",
      "outputs": [],
      "payable": false,
      "stateMutability": "nonpayable",
      "type": "function"
    },
    {
      "constant": true,
      "inputs": [],
      "name": "owner",
      "outputs": [
        {
          "name": "",
          "type": "address"
        }
      ],
      "payable": false,
      "stateMutability": "view",
      "type": "function"
    },
    {
      "constant": true,
      "inputs": [],
      "name": "isOwner",
      "outputs": [
        {
          "name": "",
          "type": "bool"
        }
      ],
      "payable": false,
      "stateMutability": "view",
      "type": "function"
    },
    {
      "constant": false,
      "inputs": [
        {
          "name": "to",
          "type": "address"
        },
        {
          "name": "approved",
          "type": "bool"
        }
      ],
      "name": "setApprovalForAll",
      "outputs": [],
      "payable": false,
      "stateMutability": "nonpayable",
      "type": "function"
    },
    {
      "constant": true,
      "inputs": [],
      "name": "previousRegistrar",
      "outputs": [
        {
          "name": "",
          "type": "address"
        }
      ],
      "payable": false,
      "stateMutability": "view",
      "type": "function"
    },
    {
      "constant": false,
      "inputs": [
        {
          "name": "from",
          "type": "address"
        },
        {
          "name": "to",
          "type": "address"
        },
        {
          "name": "tokenId",
          "type": "uint256"
        },
        {
          "name": "_data",
          "type": "bytes"
        }
      ],
      "name": "safeTransferFrom",
      "outputs": [],
      "payable": false,
      "stateMutability": "nonpayable",
      "type": "function"
    },
    {
      "constant": true,
      "inputs": [],
      "name": "GRACE_PERIOD",
      "outputs": [
        {
          "name": "",
          "type": "uint256"
        }
      ],
      "payable": false,
      "stateMutability": "view",
      "type": "function"
    },
    {
      "constant": true,
      "inputs": [
        {
          "name": "",
          "type": "address"
        }
      ],
      "name": "controllers",
      "outputs": [
        {
          "name": "",
          "type": "bool"
        }
      ],
      "payable": false,
      "stateMutability": "view",
      "type": "function"
    },
    {
      "constant": true,
      "inputs": [],
      "name": "baseNode",
      "outputs": [
        {
          "name": "",
          "type": "bytes32"
        }
      ],
      "payable": false,
      "stateMutability": "view",
      "type": "function"
    },
    {
      "constant": true,
      "inputs": [
        {
          "name": "owner",
          "type": "address"
        },
        {
          "name": "operator",
          "type": "address"
        }
      ],
      "name": "isApprovedForAll",
      "outputs": [
        {
          "name": "",
          "type": "bool"
        }
      ],
      "payable": false,
      "stateMutability": "view",
      "type": "function"
    },
    {
      "constant": false,
      "inputs": [
        {
          "name": "newOwner",
          "type": "address"
        }
      ],
      "name": "transferOwnership",
      "outputs": [],
      "payable": false,
      "stateMutability": "nonpayable",
      "type": "function"
    },
    {
      "inputs": [
        {
          "name": "_ens",
          "type": "address"
        },
        {
          "name": "_previousRegistrar",
          "type": "address"
        },
        {
          "name": "_baseNode",
          "type": "bytes32"
        }
      ],
      "payable": false,
      "stateMutability": "nonpayable",
      "type": "constructor"
    },
    {
      "anonymous": false,
      "inputs": [
        {
          "indexed": true,
          "name": "controller",
          "type": "address"
        }
      ],
      "name": "ControllerAdded",
      "type": "event"
    },
    {
      "anonymous": false,
      "inputs": [
        {
          "indexed": true,
          "name": "controller",
          "type": "address"
        }
      ],
      "name": "ControllerRemoved",
      "type": "event"
    },
    {
      "anonymous": false,
      "inputs": [
        {
          "indexed": true,
          "name": "id",
          "type": "uint256"
        },
        {
          "indexed": true,
          "name": "owner",
          "type": "address"
        },
        {
          "indexed": false,
          "name": "expires",
          "type": "uint256"
        }
      ],
      "name": "NameMigrated",
      "type": "event"
    },
    {
      "anonymous": false,
      "inputs": [
        {
          "indexed": true,
          "name": "id",
          "type": "uint256"
        },
        {
          "indexed": true,
          "name": "owner",
          "type": "address"
        },
        {
          "indexed": false,
          "name": "expires",
          "type": "uint256"
        }
      ],
      "name": "NameRegistered",
      "type": "event"
    },
    {
      "anonymous": false,
      "inputs": [
        {
          "indexed": true,
          "name": "id",
          "type": "uint256"
        },
        {
          "indexed": false,
          "name": "expires",
          "type": "uint256"
        }
      ],
      "name": "NameRenewed",
      "type": "event"
    },
    {
      "anonymous": false,
      "inputs": [
        {
          "indexed": true,
          "name": "previousOwner",
          "type": "address"
        },
        {
          "indexed": true,
          "name": "newOwner",
          "type": "address"
        }
      ],
      "name": "OwnershipTransferred",
      "type": "event"
    },
    {
      "anonymous": false,
      "inputs": [
        {
          "indexed": true,
          "name": "from",
          "type": "address"
        },
        {
          "indexed": true,
          "name": "to",
          "type": "address"
        },
        {
          "indexed": true,
          "name": "tokenId",
          "type": "uint256"
        }
      ],
      "name": "Transfer",
      "type": "event"
    },
    {
      "anonymous": false,
      "inputs": [
        {
          "indexed": true,
          "name": "owner",
          "type": "address"
        },
        {
          "indexed": true,
          "name": "approved",
          "type": "address"
        },
        {
          "indexed": true,
          "name": "tokenId",
          "type": "uint256"
        }
      ],
      "name": "Approval",
      "type": "event"
    },
    {
      "anonymous": false,
      "inputs": [
        {
          "indexed": true,
          "name": "owner",
          "type": "address"
        },
        {
          "indexed": true,
          "name": "operator",
          "type": "address"
        },
        {
          "indexed": false,
          "name": "approved",
          "type": "bool"
        }
      ],
      "name": "ApprovalForAll",
      "type": "event"
    },
    {
      "constant": true,
      "inputs": [
        {
          "name": "tokenId",
          "type": "uint256"
        }
      ],
      "name": "ownerOf",
      "outputs": [
        {
          "name": "",
          "type": "address"
        }
      ],
      "payable": false,
      "stateMutability": "view",
      "type": "function"
    },
    {
      "constant": false,
      "inputs": [
        {
          "name": "controller",
          "type": "address"
        }
      ],
      "name": "addController",
      "outputs": [],
      "payable": false,
      "stateMutability": "nonpayable",
      "type": "function"
    },
    {
      "constant": false,
      "inputs": [
        {
          "name": "controller",
          "type": "address"
        }
      ],
      "name": "removeController",
      "outputs": [],
      "payable": false,
      "stateMutability": "nonpayable",
      "type": "function"
    },
    {
      "constant": false,
      "inputs": [
        {
          "name": "resolver",
          "type": "address"
        }
      ],
      "name": "setResolver",
      "outputs": [],
      "payable": false,
      "stateMutability": "nonpayable",
      "type": "function"
    },
    {
      "constant": true,
      "inputs": [
        {
          "name": "id",
          "type": "uint256"
        }
      ],
      "name": "nameExpires",
      "outputs": [
        {
          "name": "",
          "type": "uint256"
        }
      ],
      "payable": false,
      "stateMutability": "view",
      "type": "function"
    },
    {
      "constant": true,
      "inputs": [
        {
          "name": "id",
          "type": "uint256"
        }
      ],
      "name": "available",
      "outputs": [
        {
          "name": "",
          "type": "bool"
        }
      ],
      "payable": false,
      "stateMutability": "view",
      "type": "function"
    },
    {
      "constant": false,
      "inputs": [
        {
          "name": "id",
          "type": "uint256"
        },
        {
          "name": "owner",
          "type": "address"
        },
        {
          "name": "duration",
          "type": "uint256"
        }
      ],
      "name": "register",
      "outputs": [
        {
          "name": "",
          "type": "uint256"
        }
      ],
      "payable": false,
      "stateMutability": "nonpayable",
      "type": "function"
    },
    {
      "constant": false,
      "inputs": [
        {
          "name": "id",
          "type": "uint256"
        },
        {
          "name": "duration",
          "type": "uint256"
        }
      ],
      "name": "renew",
      "outputs": [
        {
          "name": "",
          "type": "uint256"
        }
      ],
      "payable": false,
      "stateMutability": "nonpayable",
      "type": "function"
    },
    {
      "constant": false,
      "inputs": [
        {
          "name": "id",
          "type": "uint256"
        },
        {
          "name": "owner",
          "type": "address"
        }
      ],
      "name": "reclaim",
      "outputs": [],
      "payable": false,
      "stateMutability": "nonpayable",
      "type": "function"
    },
    {
      "constant": false,
      "inputs": [
        {
          "name": "label",
          "type": "bytes32"
        },
        {
          "name": "deed",
          "type": "address"
        },
        {
          "name": "",
          "type": "uint256"
        }
      ],
      "name": "acceptRegistrarTransfer",
      "outputs": [],
      "payable": false,
      "stateMutability": "nonpayable",
      "type": "function"
    },
    {
      "constant": true,
      "inputs": [
        {
          "name": "interfaceID",
          "type": "bytes4"
        }
      ],
      "name": "supportsInterface",
      "outputs": [
        {
          "name": "",
          "type": "bool"
        }
      ],
      "payable": false,
      "stateMutability": "view",
      "type": "function"
    }
  ],
  "bytecode": "0x60806040523480156200001157600080fd5b50604051606080620035bf833981018060405260608110156200003357600080fd5b81019080805190602001909291908051906020019092919080519060200190929190505050620000956301ffc9a77c01000000000000000000000000000000000000000000000000000000000262000229640100000000026401000000009004565b620000d26380ac58cd7c01000000000000000000000000000000000000000000000000000000000262000229640100000000026401000000009004565b33600560006101000a81548173ffffffffffffffffffffffffffffffffffffffff021916908373ffffffffffffffffffffffffffffffffffffffff160217905550600560009054906101000a900473ffffffffffffffffffffffffffffffffffffffff1673ffffffffffffffffffffffffffffffffffffffff16600073ffffffffffffffffffffffffffffffffffffffff167f8be0079c531659141344cd1fd0a4f28419497f9722a3daafe3b4186f6b6457e060405160405180910390a382600760006101000a81548173ffffffffffffffffffffffffffffffffffffffff021916908373ffffffffffffffffffffffffffffffffffffffff1602179055508060088190555081600960006101000a81548173ffffffffffffffffffffffffffffffffffffffff021916908373ffffffffffffffffffffffffffffffffffffffff16021790555042600681905550505050620002e7565b63ffffffff7c010000000000000000000000000000000000000000000000000000000002817bffffffffffffffffffffffffffffffffffffffffffffffffffffffff1916141515156200027b57600080fd5b6001600080837bffffffffffffffffffffffffffffffffffffffffffffffffffffffff19167bffffffffffffffffffffffffffffffffffffffffffffffffffffffff1916815260200190815260200160002060006101000a81548160ff02191690831515021790555050565b6132c880620002f76000396000f3fe60806040526004361061017a576000357c01000000000000000000000000000000000000000000000000000000009004806301ffc9a71461017f578063081812fc146101f1578063095ea7b31461026c57806323b872dd146102c757806328ed4f6c146103425780633f15457f1461039d57806342842e0e146103f45780634ae05da71461046f5780634e543b261461049a5780636352211e146104eb5780636b1bd1c51461056657806370a0823114610591578063715018a6146105f65780638da5cb5b1461060d5780638f32d59b1461066457806396e494e814610693578063a22cb465146106e6578063a7fc7a0714610743578063ab14ec5914610794578063b88d4fde146107eb578063c1a287e2146108fd578063c475abff14610928578063d6e4fa8614610981578063da8c229e146109d0578063ddf7fcb014610a39578063e985e9c514610a64578063ea9e107a14610aed578063f2fde38b14610b52578063f6a74ed714610ba3578063fca247ac14610bf4575b600080fd5b34801561018b57600080fd5b506101d7600480360360208110156101a257600080fd5b8101908080357bffffffffffffffffffffffffffffffffffffffffffffffffffffffff19169060200190929190505050610c6d565b604051808215151515815260200191505060405180910390f35b3480156101fd57600080fd5b5061022a6004803603602081101561021457600080fd5b8101908080359060200190929190505050611036565b604051808273ffffffffffffffffffffffffffffffffffffffff1673ffffffffffffffffffffffffffffffffffffffff16815260200191505060405180910390f35b34801561027857600080fd5b506102c56004803603604081101561028f57600080fd5b81019080803573ffffffffffffffffffffffffffffffffffffffff16906020019092919080359060200190929190505050611087565b005b3480156102d357600080fd5b50610340600480360360608110156102ea57600080fd5b81019080803573ffffffffffffffffffffffffffffffffffffffff169060200190929190803573ffffffffffffffffffffffffffffffffffffffff169060200190929190803590602001909291905050506111cc565b005b34801561034e57600080fd5b5061039b6004803603604081101561036557600080fd5b8101908080359060200190929190803573ffffffffffffffffffffffffffffffffffffffff1690602001909291905050506111f1565b005b3480156103a957600080fd5b506103b26113f9565b604051808273ffffffffffffffffffffffffffffffffffffffff1673ffffffffffffffffffffffffffffffffffffffff16815260200191505060405180910390f35b34801561040057600080fd5b5061046d6004803603606081101561041757600080fd5b81019080803573ffffffffffffffffffffffffffffffffffffffff169060200190929190803573ffffffffffffffffffffffffffffffffffffffff1690602001909291908035906020019092919050505061141f565b005b34801561047b57600080fd5b50610484611440565b6040518082815260200191505060405180910390f35b3480156104a657600080fd5b506104e9600480360360208110156104bd57600080fd5b81019080803573ffffffffffffffffffffffffffffffffffffffff169060200190929190505050611446565b005b3480156104f757600080fd5b506105246004803603602081101561050e57600080fd5b810190808035906020019092919050505061153b565b604051808273ffffffffffffffffffffffffffffffffffffffff1673ffffffffffffffffffffffffffffffffffffffff16815260200191505060405180910390f35b34801561057257600080fd5b5061057b61156e565b6040518082815260200191505060405180910390f35b34801561059d57600080fd5b506105e0600480360360208110156105b457600080fd5b81019080803573ffffffffffffffffffffffffffffffffffffffff169060200190929190505050611575565b6040518082815260200191505060405180910390f35b34801561060257600080fd5b5061060b6115f9565b005b34801561061957600080fd5b506106226116cd565b604051808273ffffffffffffffffffffffffffffffffffffffff1673ffffffffffffffffffffffffffffffffffffffff16815260200191505060405180910390f35b34801561067057600080fd5b506106796116f7565b604051808215151515815260200191505060405180910390f35b34801561069f57600080fd5b506106cc600480360360208110156106b657600080fd5b810190808035906020019092919050505061174f565b604051808215151515815260200191505060405180910390f35b3480156106f257600080fd5b506107416004803603604081101561070957600080fd5b81019080803573ffffffffffffffffffffffffffffffffffffffff169060200190929190803515159060200190929190505050611875565b005b34801561074f57600080fd5b506107926004803603602081101561076657600080fd5b81019080803573ffffffffffffffffffffffffffffffffffffffff1690602001909291905050506119b1565b005b3480156107a057600080fd5b506107a9611a62565b604051808273ffffffffffffffffffffffffffffffffffffffff1673ffffffffffffffffffffffffffffffffffffffff16815260200191505060405180910390f35b3480156107f757600080fd5b506108fb6004803603608081101561080e57600080fd5b81019080803573ffffffffffffffffffffffffffffffffffffffff169060200190929190803573ffffffffffffffffffffffffffffffffffffffff169060200190929190803590602001909291908035906020019064010000000081111561087557600080fd5b82018360208201111561088757600080fd5b803590602001918460018302840111640100000000831117156108a957600080fd5b91908080601f016020809104026020016040519081016040528093929190818152602001838380828437600081840152601f19601f820116905080830192505050505050509192919290505050611a88565b005b34801561090957600080fd5b50610912611ab0565b6040518082815260200191505060405180910390f35b34801561093457600080fd5b5061096b6004803603604081101561094b57600080fd5b810190808035906020019092919080359060200190929190505050611ab7565b6040518082815260200191505060405180910390f35b34801561098d57600080fd5b506109ba600480360360208110156109a457600080fd5b8101908080359060200190929190505050611cf2565b6040518082815260200191505060405180910390f35b3480156109dc57600080fd5b50610a1f600480360360208110156109f357600080fd5b81019080803573ffffffffffffffffffffffffffffffffffffffff169060200190929190505050611d0f565b604051808215151515815260200191505060405180910390f35b348015610a4557600080fd5b50610a4e611d2f565b6040518082815260200191505060405180910390f35b348015610a7057600080fd5b50610ad360048036036040811015610a8757600080fd5b81019080803573ffffffffffffffffffffffffffffffffffffffff169060200190929190803573ffffffffffffffffffffffffffffffffffffffff169060200190929190505050611d35565b604051808215151515815260200191505060405180910390f35b348015610af957600080fd5b50610b5060048036036060811015610b1057600080fd5b8101908080359060200190929190803573ffffffffffffffffffffffffffffffffffffffff16906020019092919080359060200190929190505050611dc9565b005b348015610b5e57600080fd5b50610ba160048036036020811015610b7557600080fd5b81019080803573ffffffffffffffffffffffffffffffffffffffff16906020019092919050505061235b565b005b348015610baf57600080fd5b50610bf260048036036020811015610bc657600080fd5b81019080803573ffffffffffffffffffffffffffffffffffffffff16906020019092919050505061237a565b005b348015610c0057600080fd5b50610c5760048036036060811015610c1757600080fd5b8101908080359060200190929190803573ffffffffffffffffffffffffffffffffffffffff1690602001909291908035906020019092919050505061242b565b6040518082815260200191505060405180910390f35b600060405180807f737570706f727473496e74657266616365286279746573342900000000000000815250601901905060405180910390207bffffffffffffffffffffffffffffffffffffffffffffffffffffffff1916827bffffffffffffffffffffffffffffffffffffffffffffffffffffffff19161480610fb2575060405180807f736166655472616e7366657246726f6d28616464726573732c6164647265737381526020017f2c75696e743235362c6279746573290000000000000000000000000000000000815250602f019050604051809103902060405180807f736166655472616e7366657246726f6d28616464726573732c6164647265737381526020017f2c75696e743235362900000000000000000000000000000000000000000000008152506029019050604051809103902060405180807f7472616e7366657246726f6d28616464726573732c616464726573732c75696e81526020017f74323536290000000000000000000000000000000000000000000000000000008152506025019050604051809103902060405180807f6973417070726f766564466f72416c6c28616464726573732c6164647265737381526020017f29000000000000000000000000000000000000000000000000000000000000008152506021019050604051809103902060405180807f736574417070726f76616c466f72416c6c28616464726573732c626f6f6c2900815250601f019050604051809103902060405180807f676574417070726f7665642875696e74323536290000000000000000000000008152506014019050604051809103902060405180807f617070726f766528616464726573732c75696e743235362900000000000000008152506018019050604051809103902060405180807f6f776e65724f662875696e7432353629000000000000000000000000000000008152506010019050604051809103902060405180807f62616c616e63654f662875696e743235362900000000000000000000000000008152506012019050604051809103902018181818181818187bffffffffffffffffffffffffffffffffffffffffffffffffffffffff1916827bffffffffffffffffffffffffffffffffffffffffffffffffffffffff1916145b8061102f575060405180807f7265636c61696d2875696e743235362c61646472657373290000000000000000815250601801905060405180910390207bffffffffffffffffffffffffffffffffffffffffffffffffffffffff1916827bffffffffffffffffffffffffffffffffffffffffffffffffffffffff1916145b9050919050565b60006110418261273b565b151561104c57600080fd5b6002600083815260200190815260200160002060009054906101000a900473ffffffffffffffffffffffffffffffffffffffff169050919050565b60006110928261153b565b90508073ffffffffffffffffffffffffffffffffffffffff168373ffffffffffffffffffffffffffffffffffffffff16141515156110cf57600080fd5b8073ffffffffffffffffffffffffffffffffffffffff163373ffffffffffffffffffffffffffffffffffffffff16148061110f575061110e8133611d35565b5b151561111a57600080fd5b826002600084815260200190815260200160002060006101000a81548173ffffffffffffffffffffffffffffffffffffffff021916908373ffffffffffffffffffffffffffffffffffffffff160217905550818373ffffffffffffffffffffffffffffffffffffffff168273ffffffffffffffffffffffffffffffffffffffff167f8c5be1e5ebec7d5bd14f71427d1e84f3dd0314c0f7b2291e5b200ac8c7c3b92560405160405180910390a4505050565b6111d633826127ad565b15156111e157600080fd5b6111ec838383612842565b505050565b3073ffffffffffffffffffffffffffffffffffffffff16600760009054906101000a900473ffffffffffffffffffffffffffffffffffffffff1673ffffffffffffffffffffffffffffffffffffffff166302571be36008546040518263ffffffff167c01000000000000000000000000000000000000000000000000000000000281526004018082815260200191505060206040518083038186803b15801561129957600080fd5b505afa1580156112ad573d6000803e3d6000fd5b505050506040513d60208110156112c357600080fd5b810190808051906020019092919050505073ffffffffffffffffffffffffffffffffffffffff161415156112f657600080fd5b61130033836127ad565b151561130b57600080fd5b600760009054906101000a900473ffffffffffffffffffffffffffffffffffffffff1673ffffffffffffffffffffffffffffffffffffffff166306ab592360085484600102846040518463ffffffff167c0100000000000000000000000000000000000000000000000000000000028152600401808481526020018381526020018273ffffffffffffffffffffffffffffffffffffffff1673ffffffffffffffffffffffffffffffffffffffff1681526020019350505050600060405180830381600087803b1580156113dd57600080fd5b505af11580156113f1573d6000803e3d6000fd5b505050505050565b600760009054906101000a900473ffffffffffffffffffffffffffffffffffffffff1681565b61143b8383836020604051908101604052806000815250611a88565b505050565b60065481565b61144e6116f7565b151561145957600080fd5b600760009054906101000a900473ffffffffffffffffffffffffffffffffffffffff1673ffffffffffffffffffffffffffffffffffffffff16631896f70a600854836040518363ffffffff167c0100000000000000000000000000000000000000000000000000000000028152600401808381526020018273ffffffffffffffffffffffffffffffffffffffff1673ffffffffffffffffffffffffffffffffffffffff16815260200192505050600060405180830381600087803b15801561152057600080fd5b505af1158015611534573d6000803e3d6000fd5b5050505050565b600042600b60008481526020019081526020016000205411151561155e57600080fd5b61156782612aa7565b9050919050565b6224ea0081565b60008073ffffffffffffffffffffffffffffffffffffffff168273ffffffffffffffffffffffffffffffffffffffff16141515156115b257600080fd5b600360008373ffffffffffffffffffffffffffffffffffffffff1673ffffffffffffffffffffffffffffffffffffffff168152602001908152602001600020549050919050565b6116016116f7565b151561160c57600080fd5b600073ffffffffffffffffffffffffffffffffffffffff16600560009054906101000a900473ffffffffffffffffffffffffffffffffffffffff1673ffffffffffffffffffffffffffffffffffffffff167f8be0079c531659141344cd1fd0a4f28419497f9722a3daafe3b4186f6b6457e060405160405180910390a36000600560006101000a81548173ffffffffffffffffffffffffffffffffffffffff021916908373ffffffffffffffffffffffffffffffffffffffff160217905550565b6000600560009054906101000a900473ffffffffffffffffffffffffffffffffffffffff16905090565b6000600560009054906101000a900473ffffffffffffffffffffffffffffffffffffffff1673ffffffffffffffffffffffffffffffffffffffff163373ffffffffffffffffffffffffffffffffffffffff1614905090565b6000426276a700600b6000858152602001908152602001600020540110151561177b5760009050611870565b60065442118061186d57506000600581111561179357fe5b600960009054906101000a900473ffffffffffffffffffffffffffffffffffffffff1673ffffffffffffffffffffffffffffffffffffffff166361d585da846001026040518263ffffffff167c01000000000000000000000000000000000000000000000000000000000281526004018082815260200191505060206040518083038186803b15801561182557600080fd5b505afa158015611839573d6000803e3d6000fd5b505050506040513d602081101561184f57600080fd5b8101908080519060200190929190505050600581111561186b57fe5b145b90505b919050565b3373ffffffffffffffffffffffffffffffffffffffff168273ffffffffffffffffffffffffffffffffffffffff16141515156118b057600080fd5b80600460003373ffffffffffffffffffffffffffffffffffffffff1673ffffffffffffffffffffffffffffffffffffffff16815260200190815260200160002060008473ffffffffffffffffffffffffffffffffffffffff1673ffffffffffffffffffffffffffffffffffffffff16815260200190815260200160002060006101000a81548160ff0219169083151502179055508173ffffffffffffffffffffffffffffffffffffffff163373ffffffffffffffffffffffffffffffffffffffff167f17307eab39ab6107e8899845ad3d59bd9653f200f220920489ca2b5937696c3183604051808215151515815260200191505060405180910390a35050565b6119b96116f7565b15156119c457600080fd5b6001600a60008373ffffffffffffffffffffffffffffffffffffffff1673ffffffffffffffffffffffffffffffffffffffff16815260200190815260200160002060006101000a81548160ff0219169083151502179055508073ffffffffffffffffffffffffffffffffffffffff167f0a8bb31534c0ed46f380cb867bd5c803a189ced9a764e30b3a4991a9901d747460405160405180910390a250565b600960009054906101000a900473ffffffffffffffffffffffffffffffffffffffff1681565b611a938484846111cc565b611a9f84848484612b25565b1515611aaa57600080fd5b50505050565b6276a70081565b60003073ffffffffffffffffffffffffffffffffffffffff16600760009054906101000a900473ffffffffffffffffffffffffffffffffffffffff1673ffffffffffffffffffffffffffffffffffffffff166302571be36008546040518263ffffffff167c01000000000000000000000000000000000000000000000000000000000281526004018082815260200191505060206040518083038186803b158015611b6157600080fd5b505afa158015611b75573d6000803e3d6000fd5b505050506040513d6020811015611b8b57600080fd5b810190808051906020019092919050505073ffffffffffffffffffffffffffffffffffffffff16141515611bbe57600080fd5b600a60003373ffffffffffffffffffffffffffffffffffffffff1673ffffffffffffffffffffffffffffffffffffffff16815260200190815260200160002060009054906101000a900460ff161515611c1657600080fd5b426276a700600b6000868152602001908152602001600020540110151515611c3d57600080fd5b6276a70082016276a70083600b6000878152602001908152602001600020540101111515611c6a57600080fd5b81600b600085815260200190815260200160002060008282540192505081905550827f9b87a00e30f1ac65d898f070f8a3488fe60517182d0a2098e1b4b93a54aa9bd6600b6000868152602001908152602001600020546040518082815260200191505060405180910390a2600b600084815260200190815260200160002054905092915050565b6000600b6000838152602001908152602001600020549050919050565b600a6020528060005260406000206000915054906101000a900460ff1681565b60085481565b6000600460008473ffffffffffffffffffffffffffffffffffffffff1673ffffffffffffffffffffffffffffffffffffffff16815260200190815260200160002060008373ffffffffffffffffffffffffffffffffffffffff1673ffffffffffffffffffffffffffffffffffffffff16815260200190815260200160002060009054906101000a900460ff16905092915050565b3073ffffffffffffffffffffffffffffffffffffffff16600760009054906101000a900473ffffffffffffffffffffffffffffffffffffffff1673ffffffffffffffffffffffffffffffffffffffff166302571be36008546040518263ffffffff167c01000000000000000000000000000000000000000000000000000000000281526004018082815260200191505060206040518083038186803b158015611e7157600080fd5b505afa158015611e85573d6000803e3d6000fd5b505050506040513d6020811015611e9b57600080fd5b810190808051906020019092919050505073ffffffffffffffffffffffffffffffffffffffff16141515611ece57600080fd5b600083600190049050600960009054906101000a900473ffffffffffffffffffffffffffffffffffffffff1673ffffffffffffffffffffffffffffffffffffffff163373ffffffffffffffffffffffffffffffffffffffff16141515611f3357600080fd5b6000600b600083815260200190815260200160002054141515611f5557600080fd5b42600654111515611f6557600080fd5b6000600960009054906101000a900473ffffffffffffffffffffffffffffffffffffffff1673ffffffffffffffffffffffffffffffffffffffff1663267b6922866040518263ffffffff167c01000000000000000000000000000000000000000000000000000000000281526004018082815260200191505060a06040518083038186803b158015611ff657600080fd5b505afa15801561200a573d6000803e3d6000fd5b505050506040513d60a081101561202057600080fd5b810190808051906020019092919080519060200190929190805190602001909291908051906020019092919080519060200190929190505050909192935090919250905050809150506224ea0042038110151561207c57600080fd5b60008473ffffffffffffffffffffffffffffffffffffffff16638da5cb5b6040518163ffffffff167c010000000000000000000000000000000000000000000000000000000002815260040160206040518083038186803b1580156120e057600080fd5b505afa1580156120f4573d6000803e3d6000fd5b505050506040513d602081101561210a57600080fd5b810190808051906020019092919050505090508473ffffffffffffffffffffffffffffffffffffffff1663bbe427716103e86040518263ffffffff167c010000000000000000000000000000000000000000000000000000000002815260040180828152602001915050600060405180830381600087803b15801561218e57600080fd5b505af11580156121a2573d6000803e3d6000fd5b50505050600654600b6000858152602001908152602001600020819055506121ca8184612d48565b600760009054906101000a900473ffffffffffffffffffffffffffffffffffffffff1673ffffffffffffffffffffffffffffffffffffffff166306ab592360085488846040518463ffffffff167c0100000000000000000000000000000000000000000000000000000000028152600401808481526020018381526020018273ffffffffffffffffffffffffffffffffffffffff1673ffffffffffffffffffffffffffffffffffffffff1681526020019350505050600060405180830381600087803b15801561229957600080fd5b505af11580156122ad573d6000803e3d6000fd5b505050508073ffffffffffffffffffffffffffffffffffffffff16837fea3d7e1195a15d2ddcd859b01abd4c6b960fa9f9264e499a70a90c7f0c64b7176006546040518082815260200191505060405180910390a38073ffffffffffffffffffffffffffffffffffffffff16837fb3d987963d01b2f68493b4bdb130988f157ea43070d4ad840fee0466ed9370d96006546040518082815260200191505060405180910390a3505050505050565b6123636116f7565b151561236e57600080fd5b61237781612ee1565b50565b6123826116f7565b151561238d57600080fd5b6000600a60008373ffffffffffffffffffffffffffffffffffffffff1673ffffffffffffffffffffffffffffffffffffffff16815260200190815260200160002060006101000a81548160ff0219169083151502179055508073ffffffffffffffffffffffffffffffffffffffff167f33d83959be2573f5453b12eb9d43b3499bc57d96bd2f067ba44803c859e8111360405160405180910390a250565b60003073ffffffffffffffffffffffffffffffffffffffff16600760009054906101000a900473ffffffffffffffffffffffffffffffffffffffff1673ffffffffffffffffffffffffffffffffffffffff166302571be36008546040518263ffffffff167c01000000000000000000000000000000000000000000000000000000000281526004018082815260200191505060206040518083038186803b1580156124d557600080fd5b505afa1580156124e9573d6000803e3d6000fd5b505050506040513d60208110156124ff57600080fd5b810190808051906020019092919050505073ffffffffffffffffffffffffffffffffffffffff1614151561253257600080fd5b600a60003373ffffffffffffffffffffffffffffffffffffffff1673ffffffffffffffffffffffffffffffffffffffff16815260200190815260200160002060009054906101000a900460ff16151561258a57600080fd5b6125938461174f565b151561259e57600080fd5b6276a70042016276a700834201011115156125b857600080fd5b814201600b6000868152602001908152602001600020819055506125db8461273b565b156125ea576125e984612fdd565b5b6125f48385612d48565b600760009054906101000a900473ffffffffffffffffffffffffffffffffffffffff1673ffffffffffffffffffffffffffffffffffffffff166306ab592360085486600102866040518463ffffffff167c0100000000000000000000000000000000000000000000000000000000028152600401808481526020018381526020018273ffffffffffffffffffffffffffffffffffffffff1673ffffffffffffffffffffffffffffffffffffffff1681526020019350505050600060405180830381600087803b1580156126c657600080fd5b505af11580156126da573d6000803e3d6000fd5b505050508273ffffffffffffffffffffffffffffffffffffffff16847fb3d987963d01b2f68493b4bdb130988f157ea43070d4ad840fee0466ed9370d98442016040518082815260200191505060405180910390a381420190509392505050565b6000806001600084815260200190815260200160002060009054906101000a900473ffffffffffffffffffffffffffffffffffffffff169050600073ffffffffffffffffffffffffffffffffffffffff168173ffffffffffffffffffffffffffffffffffffffff161415915050919050565b6000806127b98361153b565b90508073ffffffffffffffffffffffffffffffffffffffff168473ffffffffffffffffffffffffffffffffffffffff16148061282857508373ffffffffffffffffffffffffffffffffffffffff1661281084611036565b73ffffffffffffffffffffffffffffffffffffffff16145b8061283957506128388185611d35565b5b91505092915050565b8273ffffffffffffffffffffffffffffffffffffffff166128628261153b565b73ffffffffffffffffffffffffffffffffffffffff1614151561288457600080fd5b600073ffffffffffffffffffffffffffffffffffffffff168273ffffffffffffffffffffffffffffffffffffffff16141515156128c057600080fd5b6128c981612ff2565b61291c6001600360008673ffffffffffffffffffffffffffffffffffffffff1673ffffffffffffffffffffffffffffffffffffffff168152602001908152602001600020546130b290919063ffffffff16565b600360008573ffffffffffffffffffffffffffffffffffffffff1673ffffffffffffffffffffffffffffffffffffffff168152602001908152602001600020819055506129b26001600360008573ffffffffffffffffffffffffffffffffffffffff1673ffffffffffffffffffffffffffffffffffffffff168152602001908152602001600020546130d490919063ffffffff16565b600360008473ffffffffffffffffffffffffffffffffffffffff1673ffffffffffffffffffffffffffffffffffffffff16815260200190815260200160002081905550816001600083815260200190815260200160002060006101000a81548173ffffffffffffffffffffffffffffffffffffffff021916908373ffffffffffffffffffffffffffffffffffffffff160217905550808273ffffffffffffffffffffffffffffffffffffffff168473ffffffffffffffffffffffffffffffffffffffff167fddf252ad1be2c89b69c2b068fc378daa952ba7f163c4a11628f55a4df523b3ef60405160405180910390a4505050565b6000806001600084815260200190815260200160002060009054906101000a900473ffffffffffffffffffffffffffffffffffffffff169050600073ffffffffffffffffffffffffffffffffffffffff168173ffffffffffffffffffffffffffffffffffffffff1614151515612b1c57600080fd5b80915050919050565b6000612b468473ffffffffffffffffffffffffffffffffffffffff166130f5565b1515612b555760019050612d40565b60008473ffffffffffffffffffffffffffffffffffffffff1663150b7a02338887876040518563ffffffff167c0100000000000000000000000000000000000000000000000000000000028152600401808573ffffffffffffffffffffffffffffffffffffffff1673ffffffffffffffffffffffffffffffffffffffff1681526020018473ffffffffffffffffffffffffffffffffffffffff1673ffffffffffffffffffffffffffffffffffffffff16815260200183815260200180602001828103825283818151815260200191508051906020019080838360005b83811015612c4c578082015181840152602081019050612c31565b50505050905090810190601f168015612c795780820380516001836020036101000a031916815260200191505b5095505050505050602060405180830381600087803b158015612c9b57600080fd5b505af1158015612caf573d6000803e3d6000fd5b505050506040513d6020811015612cc557600080fd5b8101908080519060200190929190505050905063150b7a027c0100000000000000000000000000000000000000000000000000000000027bffffffffffffffffffffffffffffffffffffffffffffffffffffffff1916817bffffffffffffffffffffffffffffffffffffffffffffffffffffffff1916149150505b949350505050565b600073ffffffffffffffffffffffffffffffffffffffff168273ffffffffffffffffffffffffffffffffffffffff1614151515612d8457600080fd5b612d8d8161273b565b151515612d9957600080fd5b816001600083815260200190815260200160002060006101000a81548173ffffffffffffffffffffffffffffffffffffffff021916908373ffffffffffffffffffffffffffffffffffffffff160217905550612e3e6001600360008573ffffffffffffffffffffffffffffffffffffffff1673ffffffffffffffffffffffffffffffffffffffff168152602001908152602001600020546130d490919063ffffffff16565b600360008473ffffffffffffffffffffffffffffffffffffffff1673ffffffffffffffffffffffffffffffffffffffff16815260200190815260200160002081905550808273ffffffffffffffffffffffffffffffffffffffff16600073ffffffffffffffffffffffffffffffffffffffff167fddf252ad1be2c89b69c2b068fc378daa952ba7f163c4a11628f55a4df523b3ef60405160405180910390a45050565b600073ffffffffffffffffffffffffffffffffffffffff168173ffffffffffffffffffffffffffffffffffffffff1614151515612f1d57600080fd5b8073ffffffffffffffffffffffffffffffffffffffff16600560009054906101000a900473ffffffffffffffffffffffffffffffffffffffff1673ffffffffffffffffffffffffffffffffffffffff167f8be0079c531659141344cd1fd0a4f28419497f9722a3daafe3b4186f6b6457e060405160405180910390a380600560006101000a81548173ffffffffffffffffffffffffffffffffffffffff021916908373ffffffffffffffffffffffffffffffffffffffff16021790555050565b612fef612fe98261153b565b82613108565b50565b600073ffffffffffffffffffffffffffffffffffffffff166002600083815260200190815260200160002060009054906101000a900473ffffffffffffffffffffffffffffffffffffffff1673ffffffffffffffffffffffffffffffffffffffff161415156130af5760006002600083815260200190815260200160002060006101000a81548173ffffffffffffffffffffffffffffffffffffffff021916908373ffffffffffffffffffffffffffffffffffffffff1602179055505b50565b60008282111515156130c357600080fd5b600082840390508091505092915050565b60008082840190508381101515156130eb57600080fd5b8091505092915050565b600080823b905060008111915050919050565b8173ffffffffffffffffffffffffffffffffffffffff166131288261153b565b73ffffffffffffffffffffffffffffffffffffffff1614151561314a57600080fd5b61315381612ff2565b6131a66001600360008573ffffffffffffffffffffffffffffffffffffffff1673ffffffffffffffffffffffffffffffffffffffff168152602001908152602001600020546130b290919063ffffffff16565b600360008473ffffffffffffffffffffffffffffffffffffffff1673ffffffffffffffffffffffffffffffffffffffff1681526020019081526020016000208190555060006001600083815260200190815260200160002060006101000a81548173ffffffffffffffffffffffffffffffffffffffff021916908373ffffffffffffffffffffffffffffffffffffffff16021790555080600073ffffffffffffffffffffffffffffffffffffffff168373ffffffffffffffffffffffffffffffffffffffff167fddf252ad1be2c89b69c2b068fc378daa952ba7f163c4a11628f55a4df523b3ef60405160405180910390a4505056fea165627a7a72305820800fee0960ce1e19b79db2360be246c29da685f9378845152a3333302e36d0bd0029",
  "source": "/**\n *Submitted for verification at Etherscan.io on 2019-04-30\n*/\n\n// File: @ensdomains/ens/contracts/ENS.sol\n\npragma solidity >=0.4.24;\n\ninterface ENS {\n\n    // Logged when the owner of a node assigns a new owner to a subnode.\n    event NewOwner(bytes32 indexed node, bytes32 indexed label, address owner);\n\n    // Logged when the owner of a node transfers ownership to a new account.\n    event Transfer(bytes32 indexed node, address owner);\n\n    // Logged when the resolver for a node changes.\n    event NewResolver(bytes32 indexed node, address resolver);\n\n    // Logged when the TTL of a node changes\n    event NewTTL(bytes32 indexed node, uint64 ttl);\n\n\n    function setSubnodeOwner(bytes32 node, bytes32 label, address owner) external;\n    function setResolver(bytes32 node, address resolver) external;\n    function setOwner(bytes32 node, address owner) external;\n    function setTTL(bytes32 node, uint64 ttl) external;\n    function owner(bytes32 node) external view returns (address);\n    function resolver(bytes32 node) external view returns (address);\n    function ttl(bytes32 node) external view returns (uint64);\n\n}\n\n// File: @ensdomains/ens/contracts/Deed.sol\n\npragma solidity >=0.4.24;\n\ninterface Deed {\n\n    function setOwner(address payable newOwner) external;\n    function setRegistrar(address newRegistrar) external;\n    function setBalance(uint newValue, bool throwOnFailure) external;\n    function closeDeed(uint refundRatio) external;\n    function destroyDeed() external;\n\n    function owner() external view returns (address);\n    function previousOwner() external view returns (address);\n    function value() external view returns (uint);\n    function creationDate() external view returns (uint);\n\n}\n\n// File: @ensdomains/ens/contracts/Registrar.sol\n\npragma solidity >=0.4.24;\n\n\ninterface Registrar {\n\n    enum Mode { Open, Auction, Owned, Forbidden, Reveal, NotYetAvailable }\n\n    event AuctionStarted(bytes32 indexed hash, uint registrationDate);\n    event NewBid(bytes32 indexed hash, address indexed bidder, uint deposit);\n    event BidRevealed(bytes32 indexed hash, address indexed owner, uint value, uint8 status);\n    event HashRegistered(bytes32 indexed hash, address indexed owner, uint value, uint registrationDate);\n    event HashReleased(bytes32 indexed hash, uint value);\n    event HashInvalidated(bytes32 indexed hash, string indexed name, uint value, uint registrationDate);\n\n    function startAuction(bytes32 _hash) external;\n    function startAuctions(bytes32[] calldata _hashes) external;\n    function newBid(bytes32 sealedBid) external payable;\n    function startAuctionsAndBid(bytes32[] calldata hashes, bytes32 sealedBid) external payable;\n    function unsealBid(bytes32 _hash, uint _value, bytes32 _salt) external;\n    function cancelBid(address bidder, bytes32 seal) external;\n    function finalizeAuction(bytes32 _hash) external;\n    function transfer(bytes32 _hash, address payable newOwner) external;\n    function releaseDeed(bytes32 _hash) external;\n    function invalidateName(string calldata unhashedName) external;\n    function eraseNode(bytes32[] calldata labels) external;\n    function transferRegistrars(bytes32 _hash) external;\n    function acceptRegistrarTransfer(bytes32 hash, Deed deed, uint registrationDate) external;\n    function entries(bytes32 _hash) external view returns (Mode, address, uint, uint, uint);\n}\n\n// File: @ensdomains/ens/contracts/DeedImplementation.sol\n\npragma solidity ^0.5.0;\n\n\n/**\n * @title Deed to hold ether in exchange for ownership of a node\n * @dev The deed can be controlled only by the registrar and can only send ether back to the owner.\n */\ncontract DeedImplementation is Deed {\n\n    address payable constant burn = address(0xdead);\n\n    address payable private _owner;\n    address private _previousOwner;\n    address private _registrar;\n\n    uint private _creationDate;\n    uint private _value;\n\n    bool active;\n\n    event OwnerChanged(address newOwner);\n    event DeedClosed();\n\n    modifier onlyRegistrar {\n        require(msg.sender == _registrar);\n        _;\n    }\n\n    modifier onlyActive {\n        require(active);\n        _;\n    }\n\n    constructor(address payable initialOwner) public payable {\n        _owner = initialOwner;\n        _registrar = msg.sender;\n        _creationDate = now;\n        active = true;\n        _value = msg.value;\n    }\n\n    function setOwner(address payable newOwner) external onlyRegistrar {\n        require(newOwner != address(0x0));\n        _previousOwner = _owner;  // This allows contracts to check who sent them the ownership\n        _owner = newOwner;\n        emit OwnerChanged(newOwner);\n    }\n\n    function setRegistrar(address newRegistrar) external onlyRegistrar {\n        _registrar = newRegistrar;\n    }\n\n    function setBalance(uint newValue, bool throwOnFailure) external onlyRegistrar onlyActive {\n        // Check if it has enough balance to set the value\n        require(_value >= newValue);\n        _value = newValue;\n        // Send the difference to the owner\n        require(_owner.send(address(this).balance - newValue) || !throwOnFailure);\n    }\n\n    /**\n     * @dev Close a deed and refund a specified fraction of the bid value\n     *\n     * @param refundRatio The amount*1/1000 to refund\n     */\n    function closeDeed(uint refundRatio) external onlyRegistrar onlyActive {\n        active = false;\n        require(burn.send(((1000 - refundRatio) * address(this).balance)/1000));\n        emit DeedClosed();\n        _destroyDeed();\n    }\n\n    /**\n     * @dev Close a deed and refund a specified fraction of the bid value\n     */\n    function destroyDeed() external {\n        _destroyDeed();\n    }\n\n    function owner() external view returns (address) {\n        return _owner;\n    }\n\n    function previousOwner() external view returns (address) {\n        return _previousOwner;\n    }\n\n    function value() external view returns (uint) {\n        return _value;\n    }\n\n    function creationDate() external view returns (uint) {\n        _creationDate;\n    }\n\n    function _destroyDeed() internal {\n        require(!active);\n\n        // Instead of selfdestruct(owner), invoke owner fallback function to allow\n        // owner to log an event if desired; but owner should also be aware that\n        // its fallback function can also be invoked by setBalance\n        if (_owner.send(address(this).balance)) {\n            selfdestruct(burn);\n        }\n    }\n}\n\n// File: @ensdomains/ens/contracts/HashRegistrar.sol\n\npragma solidity ^0.5.0;\n\n\n/*\n\nTemporary Hash Registrar\n========================\n\nThis is a simplified version of a hash registrar. It is purporsefully limited:\nnames cannot be six letters or shorter, new auctions will stop after 4 years.\n\nThe plan is to test the basic features and then move to a new contract in at most\n2 years, when some sort of renewal mechanism will be enabled.\n*/\n\n\n\n\n/**\n * @title Registrar\n * @dev The registrar handles the auction process for each subnode of the node it owns.\n */\ncontract HashRegistrar is Registrar {\n    ENS public ens;\n    bytes32 public rootNode;\n\n    mapping (bytes32 => Entry) _entries;\n    mapping (address => mapping (bytes32 => Deed)) public sealedBids;\n\n    uint32 constant totalAuctionLength = 5 days;\n    uint32 constant revealPeriod = 48 hours;\n    uint32 public constant launchLength = 8 weeks;\n\n    uint constant minPrice = 0.01 ether;\n    uint public registryStarted;\n\n    struct Entry {\n        Deed deed;\n        uint registrationDate;\n        uint value;\n        uint highestBid;\n    }\n\n    modifier inState(bytes32 _hash, Mode _state) {\n        require(state(_hash) == _state);\n        _;\n    }\n\n    modifier onlyOwner(bytes32 _hash) {\n        require(state(_hash) == Mode.Owned && msg.sender == _entries[_hash].deed.owner());\n        _;\n    }\n\n    modifier registryOpen() {\n        require(now >= registryStarted && now <= registryStarted + (365 * 4) * 1 days && ens.owner(rootNode) == address(this));\n        _;\n    }\n\n    /**\n     * @dev Constructs a new Registrar, with the provided address as the owner of the root node.\n     *\n     * @param _ens The address of the ENS\n     * @param _rootNode The hash of the rootnode.\n     */\n    constructor(ENS _ens, bytes32 _rootNode, uint _startDate) public {\n        ens = _ens;\n        rootNode = _rootNode;\n        registryStarted = _startDate > 0 ? _startDate : now;\n    }\n\n    /**\n     * @dev Start an auction for an available hash\n     *\n     * @param _hash The hash to start an auction on\n     */\n    function startAuction(bytes32 _hash) external {\n        _startAuction(_hash);\n    }\n\n    /**\n     * @dev Start multiple auctions for better anonymity\n     *\n     * Anyone can start an auction by sending an array of hashes that they want to bid for.\n     * Arrays are sent so that someone can open up an auction for X dummy hashes when they\n     * are only really interested in bidding for one. This will increase the cost for an\n     * attacker to simply bid blindly on all new auctions. Dummy auctions that are\n     * open but not bid on are closed after a week.\n     *\n     * @param _hashes An array of hashes, at least one of which you presumably want to bid on\n     */\n    function startAuctions(bytes32[] calldata _hashes) external {\n        _startAuctions(_hashes);\n    }\n\n    /**\n     * @dev Submit a new sealed bid on a desired hash in a blind auction\n     *\n     * Bids are sent by sending a message to the main contract with a hash and an amount. The hash\n     * contains information about the bid, including the bidded hash, the bid amount, and a random\n     * salt. Bids are not tied to any one auction until they are revealed. The value of the bid\n     * itself can be masqueraded by sending more than the value of your actual bid. This is\n     * followed by a 48h reveal period. Bids revealed after this period will be burned and the ether unrecoverable.\n     * Since this is an auction, it is expected that most public hashes, like known domains and common dictionary\n     * words, will have multiple bidders pushing the price up.\n     *\n     * @param sealedBid A sealedBid, created by the shaBid function\n     */\n    function newBid(bytes32 sealedBid) external payable {\n        _newBid(sealedBid);\n    }\n\n    /**\n     * @dev Start a set of auctions and bid on one of them\n     *\n     * This method functions identically to calling `startAuctions` followed by `newBid`,\n     * but all in one transaction.\n     *\n     * @param hashes A list of hashes to start auctions on.\n     * @param sealedBid A sealed bid for one of the auctions.\n     */\n    function startAuctionsAndBid(bytes32[] calldata hashes, bytes32 sealedBid) external payable {\n        _startAuctions(hashes);\n        _newBid(sealedBid);\n    }\n\n    /**\n     * @dev Submit the properties of a bid to reveal them\n     *\n     * @param _hash The node in the sealedBid\n     * @param _value The bid amount in the sealedBid\n     * @param _salt The sale in the sealedBid\n     */\n    function unsealBid(bytes32 _hash, uint _value, bytes32 _salt) external {\n        bytes32 seal = shaBid(_hash, msg.sender, _value, _salt);\n        Deed bid = sealedBids[msg.sender][seal];\n        require(address(bid) != address(0x0));\n\n        sealedBids[msg.sender][seal] = Deed(address(0x0));\n        Entry storage h = _entries[_hash];\n        uint value = min(_value, bid.value());\n        bid.setBalance(value, true);\n\n        Mode auctionState = state(_hash);\n        if (auctionState == Mode.Owned) {\n            // Too late! Bidder loses their bid. Gets 0.5% back.\n            bid.closeDeed(5);\n            emit BidRevealed(_hash, msg.sender, value, 1);\n        } else if (auctionState != Mode.Reveal) {\n            // Invalid phase\n            revert();\n        } else if (value < minPrice || bid.creationDate() > h.registrationDate - revealPeriod) {\n            // Bid too low or too late, refund 99.5%\n            bid.closeDeed(995);\n            emit BidRevealed(_hash, msg.sender, value, 0);\n        } else if (value > h.highestBid) {\n            // New winner\n            // Cancel the other bid, refund 99.5%\n            if (address(h.deed) != address(0x0)) {\n                Deed previousWinner = h.deed;\n                previousWinner.closeDeed(995);\n            }\n\n            // Set new winner\n            // Per the rules of a vickery auction, the value becomes the previous highestBid\n            h.value = h.highestBid;  // will be zero if there's only 1 bidder\n            h.highestBid = value;\n            h.deed = bid;\n            emit BidRevealed(_hash, msg.sender, value, 2);\n        } else if (value > h.value) {\n            // Not winner, but affects second place\n            h.value = value;\n            bid.closeDeed(995);\n            emit BidRevealed(_hash, msg.sender, value, 3);\n        } else {\n            // Bid doesn't affect auction\n            bid.closeDeed(995);\n            emit BidRevealed(_hash, msg.sender, value, 4);\n        }\n    }\n\n    /**\n     * @dev Cancel a bid\n     *\n     * @param seal The value returned by the shaBid function\n     */\n    function cancelBid(address bidder, bytes32 seal) external {\n        Deed bid = sealedBids[bidder][seal];\n        \n        // If a sole bidder does not `unsealBid` in time, they have a few more days\n        // where they can call `startAuction` (again) and then `unsealBid` during\n        // the revealPeriod to get back their bid value.\n        // For simplicity, they should call `startAuction` within\n        // 9 days (2 weeks - totalAuctionLength), otherwise their bid will be\n        // cancellable by anyone.\n        require(address(bid) != address(0x0) && now >= bid.creationDate() + totalAuctionLength + 2 weeks);\n\n        // Send the canceller 0.5% of the bid, and burn the rest.\n        bid.setOwner(msg.sender);\n        bid.closeDeed(5);\n        sealedBids[bidder][seal] = Deed(0);\n        emit BidRevealed(seal, bidder, 0, 5);\n    }\n\n    /**\n     * @dev Finalize an auction after the registration date has passed\n     *\n     * @param _hash The hash of the name the auction is for\n     */\n    function finalizeAuction(bytes32 _hash) external onlyOwner(_hash) {\n        Entry storage h = _entries[_hash];\n        \n        // Handles the case when there's only a single bidder (h.value is zero)\n        h.value = max(h.value, minPrice);\n        h.deed.setBalance(h.value, true);\n\n        trySetSubnodeOwner(_hash, h.deed.owner());\n        emit HashRegistered(_hash, h.deed.owner(), h.value, h.registrationDate);\n    }\n\n    /**\n     * @dev The owner of a domain may transfer it to someone else at any time.\n     *\n     * @param _hash The node to transfer\n     * @param newOwner The address to transfer ownership to\n     */\n    function transfer(bytes32 _hash, address payable newOwner) external onlyOwner(_hash) {\n        require(newOwner != address(0x0));\n\n        Entry storage h = _entries[_hash];\n        h.deed.setOwner(newOwner);\n        trySetSubnodeOwner(_hash, newOwner);\n    }\n\n    /**\n     * @dev After some time, or if we're no longer the registrar, the owner can release\n     *      the name and get their ether back.\n     *\n     * @param _hash The node to release\n     */\n    function releaseDeed(bytes32 _hash) external onlyOwner(_hash) {\n        Entry storage h = _entries[_hash];\n        Deed deedContract = h.deed;\n\n        require(now >= h.registrationDate + 365 days || ens.owner(rootNode) != address(this));\n\n        h.value = 0;\n        h.highestBid = 0;\n        h.deed = Deed(0);\n\n        _tryEraseSingleNode(_hash);\n        deedContract.closeDeed(1000);\n        emit HashReleased(_hash, h.value);        \n    }\n\n    /**\n     * @dev Submit a name 6 characters long or less. If it has been registered,\n     *      the submitter will earn 50% of the deed value. \n     * \n     * We are purposefully handicapping the simplified registrar as a way \n     * to force it into being restructured in a few years.\n     *\n     * @param unhashedName An invalid name to search for in the registry.\n     */\n    function invalidateName(string calldata unhashedName)\n        external\n        inState(keccak256(abi.encode(unhashedName)), Mode.Owned)\n    {\n        require(strlen(unhashedName) <= 6);\n        bytes32 hash = keccak256(abi.encode(unhashedName));\n\n        Entry storage h = _entries[hash];\n\n        _tryEraseSingleNode(hash);\n\n        if (address(h.deed) != address(0x0)) {\n            // Reward the discoverer with 50% of the deed\n            // The previous owner gets 50%\n            h.value = max(h.value, minPrice);\n            h.deed.setBalance(h.value/2, false);\n            h.deed.setOwner(msg.sender);\n            h.deed.closeDeed(1000);\n        }\n\n        emit HashInvalidated(hash, unhashedName, h.value, h.registrationDate);\n\n        h.value = 0;\n        h.highestBid = 0;\n        h.deed = Deed(0);\n    }\n\n    /**\n     * @dev Allows anyone to delete the owner and resolver records for a (subdomain of) a\n     *      name that is not currently owned in the registrar. If passing, eg, 'foo.bar.eth',\n     *      the owner and resolver fields on 'foo.bar.eth' and 'bar.eth' will all be cleared.\n     *\n     * @param labels A series of label hashes identifying the name to zero out, rooted at the\n     *        registrar's root. Must contain at least one element. For instance, to zero \n     *        'foo.bar.eth' on a registrar that owns '.eth', pass an array containing\n     *        [keccak256('foo'), keccak256('bar')].\n     */\n    function eraseNode(bytes32[] calldata labels) external {\n        require(labels.length != 0);\n        require(state(labels[labels.length - 1]) != Mode.Owned);\n\n        _eraseNodeHierarchy(labels.length - 1, labels, rootNode);\n    }\n\n    /**\n     * @dev Transfers the deed to the current registrar, if different from this one.\n     *\n     * Used during the upgrade process to a permanent registrar.\n     *\n     * @param _hash The name hash to transfer.\n     */\n    function transferRegistrars(bytes32 _hash) external onlyOwner(_hash) {\n        address registrar = ens.owner(rootNode);\n        require(registrar != address(this));\n\n        // Migrate the deed\n        Entry storage h = _entries[_hash];\n        h.deed.setRegistrar(registrar);\n\n        // Call the new registrar to accept the transfer\n        Registrar(registrar).acceptRegistrarTransfer(_hash, h.deed, h.registrationDate);\n\n        // Zero out the Entry\n        h.deed = Deed(0);\n        h.registrationDate = 0;\n        h.value = 0;\n        h.highestBid = 0;\n    }\n\n    /**\n     * @dev Accepts a transfer from a previous registrar; stubbed out here since there\n     *      is no previous registrar implementing this interface.\n     *\n     * @param hash The sha3 hash of the label to transfer.\n     * @param deed The Deed object for the name being transferred in.\n     * @param registrationDate The date at which the name was originally registered.\n     */\n    function acceptRegistrarTransfer(bytes32 hash, Deed deed, uint registrationDate) external {\n        hash; deed; registrationDate; // Don't warn about unused variables\n    }\n\n    function entries(bytes32 _hash) external view returns (Mode, address, uint, uint, uint) {\n        Entry storage h = _entries[_hash];\n        return (state(_hash), address(h.deed), h.registrationDate, h.value, h.highestBid);\n    }\n\n    // State transitions for names:\n    //   Open -> Auction (startAuction)\n    //   Auction -> Reveal\n    //   Reveal -> Owned\n    //   Reveal -> Open (if nobody bid)\n    //   Owned -> Open (releaseDeed or invalidateName)\n    function state(bytes32 _hash) public view returns (Mode) {\n        Entry storage entry = _entries[_hash];\n\n        if (!isAllowed(_hash, now)) {\n            return Mode.NotYetAvailable;\n        } else if (now < entry.registrationDate) {\n            if (now < entry.registrationDate - revealPeriod) {\n                return Mode.Auction;\n            } else {\n                return Mode.Reveal;\n            }\n        } else {\n            if (entry.highestBid == 0) {\n                return Mode.Open;\n            } else {\n                return Mode.Owned;\n            }\n        }\n    }\n\n    /**\n     * @dev Determines if a name is available for registration yet\n     *\n     * Each name will be assigned a random date in which its auction\n     * can be started, from 0 to 8 weeks\n     *\n     * @param _hash The hash to start an auction on\n     * @param _timestamp The timestamp to query about\n     */\n    function isAllowed(bytes32 _hash, uint _timestamp) public view returns (bool allowed) {\n        return _timestamp > getAllowedTime(_hash);\n    }\n\n    /**\n     * @dev Returns available date for hash\n     *\n     * The available time from the `registryStarted` for a hash is proportional\n     * to its numeric value.\n     *\n     * @param _hash The hash to start an auction on\n     */\n    function getAllowedTime(bytes32 _hash) public view returns (uint) {\n        return registryStarted + ((launchLength * (uint(_hash) >> 128)) >> 128);\n        // Right shift operator: a >> b == a / 2**b\n    }\n\n    /**\n     * @dev Hash the values required for a secret bid\n     *\n     * @param hash The node corresponding to the desired namehash\n     * @param value The bid amount\n     * @param salt A random value to ensure secrecy of the bid\n     * @return The hash of the bid values\n     */\n    function shaBid(bytes32 hash, address owner, uint value, bytes32 salt) public pure returns (bytes32) {\n        return keccak256(abi.encodePacked(hash, owner, value, salt));\n    }\n\n    function _tryEraseSingleNode(bytes32 label) internal {\n        if (ens.owner(rootNode) == address(this)) {\n            ens.setSubnodeOwner(rootNode, label, address(this));\n            bytes32 node = keccak256(abi.encodePacked(rootNode, label));\n            ens.setResolver(node, address(0x0));\n            ens.setOwner(node, address(0x0));\n        }\n    }\n\n    function _startAuction(bytes32 _hash) internal registryOpen() {\n        Mode mode = state(_hash);\n        if (mode == Mode.Auction) return;\n        require(mode == Mode.Open);\n\n        Entry storage newAuction = _entries[_hash];\n        newAuction.registrationDate = now + totalAuctionLength;\n        newAuction.value = 0;\n        newAuction.highestBid = 0;\n        emit AuctionStarted(_hash, newAuction.registrationDate);\n    }\n\n    function _startAuctions(bytes32[] memory _hashes) internal {\n        for (uint i = 0; i < _hashes.length; i ++) {\n            _startAuction(_hashes[i]);\n        }\n    }\n\n    function _newBid(bytes32 sealedBid) internal {\n        require(address(sealedBids[msg.sender][sealedBid]) == address(0x0));\n        require(msg.value >= minPrice);\n\n        // Creates a new hash contract with the owner\n        Deed bid = (new DeedImplementation).value(msg.value)(msg.sender);\n        sealedBids[msg.sender][sealedBid] = bid;\n        emit NewBid(sealedBid, msg.sender, msg.value);\n    }\n\n    function _eraseNodeHierarchy(uint idx, bytes32[] memory labels, bytes32 node) internal {\n        // Take ownership of the node\n        ens.setSubnodeOwner(node, labels[idx], address(this));\n        node = keccak256(abi.encodePacked(node, labels[idx]));\n\n        // Recurse if there are more labels\n        if (idx > 0) {\n            _eraseNodeHierarchy(idx - 1, labels, node);\n        }\n\n        // Erase the resolver and owner records\n        ens.setResolver(node, address(0x0));\n        ens.setOwner(node, address(0x0));\n    }\n\n    /**\n     * @dev Assign the owner in ENS, if we're still the registrar\n     *\n     * @param _hash hash to change owner\n     * @param _newOwner new owner to transfer to\n     */\n    function trySetSubnodeOwner(bytes32 _hash, address _newOwner) internal {\n        if (ens.owner(rootNode) == address(this))\n            ens.setSubnodeOwner(rootNode, _hash, _newOwner);\n    }\n\n    /**\n     * @dev Returns the maximum of two unsigned integers\n     *\n     * @param a A number to compare\n     * @param b A number to compare\n     * @return The maximum of two unsigned integers\n     */\n    function max(uint a, uint b) internal pure returns (uint) {\n        if (a > b)\n            return a;\n        else\n            return b;\n    }\n\n    /**\n     * @dev Returns the minimum of two unsigned integers\n     *\n     * @param a A number to compare\n     * @param b A number to compare\n     * @return The minimum of two unsigned integers\n     */\n    function min(uint a, uint b) internal pure returns (uint) {\n        if (a < b)\n            return a;\n        else\n            return b;\n    }\n\n    /**\n     * @dev Returns the length of a given string\n     *\n     * @param s The string to measure the length of\n     * @return The length of the input string\n     */\n    function strlen(string memory s) internal pure returns (uint) {\n        s; // Don't warn about unused variables\n        // Starting here means the LSB will be the byte we care about\n        uint ptr;\n        uint end;\n        assembly {\n            ptr := add(s, 1)\n            end := add(mload(s), ptr)\n        }\n        uint len = 0;\n        for (len; ptr < end; len++) {\n            uint8 b;\n            assembly { b := and(mload(ptr), 0xFF) }\n            if (b < 0x80) {\n                ptr += 1;\n            } else if (b < 0xE0) {\n                ptr += 2;\n            } else if (b < 0xF0) {\n                ptr += 3;\n            } else if (b < 0xF8) {\n                ptr += 4;\n            } else if (b < 0xFC) {\n                ptr += 5;\n            } else {\n                ptr += 6;\n            }\n        }\n        return len;\n    }\n\n}\n\n// File: openzeppelin-solidity/contracts/introspection/IERC165.sol\n\npragma solidity ^0.5.0;\n\n/**\n * @title IERC165\n * @dev https://github.com/ethereum/EIPs/blob/master/EIPS/eip-165.md\n */\ninterface IERC165 {\n    /**\n     * @notice Query if a contract implements an interface\n     * @param interfaceId The interface identifier, as specified in ERC-165\n     * @dev Interface identification is specified in ERC-165. This function\n     * uses less than 30,000 gas.\n     */\n    function supportsInterface(bytes4 interfaceId) external view returns (bool);\n}\n\n// File: openzeppelin-solidity/contracts/token/ERC721/IERC721.sol\n\npragma solidity ^0.5.0;\n\n\n/**\n * @title ERC721 Non-Fungible Token Standard basic interface\n * @dev see https://github.com/ethereum/EIPs/blob/master/EIPS/eip-721.md\n */\ncontract IERC721 is IERC165 {\n    event Transfer(address indexed from, address indexed to, uint256 indexed tokenId);\n    event Approval(address indexed owner, address indexed approved, uint256 indexed tokenId);\n    event ApprovalForAll(address indexed owner, address indexed operator, bool approved);\n\n    function balanceOf(address owner) public view returns (uint256 balance);\n    function ownerOf(uint256 tokenId) public view returns (address owner);\n\n    function approve(address to, uint256 tokenId) public;\n    function getApproved(uint256 tokenId) public view returns (address operator);\n\n    function setApprovalForAll(address operator, bool _approved) public;\n    function isApprovedForAll(address owner, address operator) public view returns (bool);\n\n    function transferFrom(address from, address to, uint256 tokenId) public;\n    function safeTransferFrom(address from, address to, uint256 tokenId) public;\n\n    function safeTransferFrom(address from, address to, uint256 tokenId, bytes memory data) public;\n}\n\n// File: openzeppelin-solidity/contracts/token/ERC721/IERC721Receiver.sol\n\npragma solidity ^0.5.0;\n\n/**\n * @title ERC721 token receiver interface\n * @dev Interface for any contract that wants to support safeTransfers\n * from ERC721 asset contracts.\n */\ncontract IERC721Receiver {\n    /**\n     * @notice Handle the receipt of an NFT\n     * @dev The ERC721 smart contract calls this function on the recipient\n     * after a `safeTransfer`. This function MUST return the function selector,\n     * otherwise the caller will revert the transaction. The selector to be\n     * returned can be obtained as `this.onERC721Received.selector`. This\n     * function MAY throw to revert and reject the transfer.\n     * Note: the ERC721 contract address is always the message sender.\n     * @param operator The address which called `safeTransferFrom` function\n     * @param from The address which previously owned the token\n     * @param tokenId The NFT identifier which is being transferred\n     * @param data Additional data with no specified format\n     * @return `bytes4(keccak256(\"onERC721Received(address,address,uint256,bytes)\"))`\n     */\n    function onERC721Received(address operator, address from, uint256 tokenId, bytes memory data)\n    public returns (bytes4);\n}\n\n// File: openzeppelin-solidity/contracts/math/SafeMath.sol\n\npragma solidity ^0.5.0;\n\n/**\n * @title SafeMath\n * @dev Unsigned math operations with safety checks that revert on error\n */\nlibrary SafeMath {\n    /**\n    * @dev Multiplies two unsigned integers, reverts on overflow.\n    */\n    function mul(uint256 a, uint256 b) internal pure returns (uint256) {\n        // Gas optimization: this is cheaper than requiring 'a' not being zero, but the\n        // benefit is lost if 'b' is also tested.\n        // See: https://github.com/OpenZeppelin/openzeppelin-solidity/pull/522\n        if (a == 0) {\n            return 0;\n        }\n\n        uint256 c = a * b;\n        require(c / a == b);\n\n        return c;\n    }\n\n    /**\n    * @dev Integer division of two unsigned integers truncating the quotient, reverts on division by zero.\n    */\n    function div(uint256 a, uint256 b) internal pure returns (uint256) {\n        // Solidity only automatically asserts when dividing by 0\n        require(b > 0);\n        uint256 c = a / b;\n        // assert(a == b * c + a % b); // There is no case in which this doesn't hold\n\n        return c;\n    }\n\n    /**\n    * @dev Subtracts two unsigned integers, reverts on overflow (i.e. if subtrahend is greater than minuend).\n    */\n    function sub(uint256 a, uint256 b) internal pure returns (uint256) {\n        require(b <= a);\n        uint256 c = a - b;\n\n        return c;\n    }\n\n    /**\n    * @dev Adds two unsigned integers, reverts on overflow.\n    */\n    function add(uint256 a, uint256 b) internal pure returns (uint256) {\n        uint256 c = a + b;\n        require(c >= a);\n\n        return c;\n    }\n\n    /**\n    * @dev Divides two unsigned integers and returns the remainder (unsigned integer modulo),\n    * reverts when dividing by zero.\n    */\n    function mod(uint256 a, uint256 b) internal pure returns (uint256) {\n        require(b != 0);\n        return a % b;\n    }\n}\n\n// File: openzeppelin-solidity/contracts/utils/Address.sol\n\npragma solidity ^0.5.0;\n\n/**\n * Utility library of inline functions on addresses\n */\nlibrary Address {\n    /**\n     * Returns whether the target address is a contract\n     * @dev This function will return false if invoked during the constructor of a contract,\n     * as the code is not actually created until after the constructor finishes.\n     * @param account address of the account to check\n     * @return whether the target address is a contract\n     */\n    function isContract(address account) internal view returns (bool) {\n        uint256 size;\n        // XXX Currently there is no better way to check if there is a contract in an address\n        // than to check the size of the code at that address.\n        // See https://ethereum.stackexchange.com/a/14016/36603\n        // for more details about how this works.\n        // TODO Check this again before the Serenity release, because all addresses will be\n        // contracts then.\n        // solhint-disable-next-line no-inline-assembly\n        assembly { size := extcodesize(account) }\n        return size > 0;\n    }\n}\n\n// File: openzeppelin-solidity/contracts/introspection/ERC165.sol\n\npragma solidity ^0.5.0;\n\n\n/**\n * @title ERC165\n * @author Matt Condon (@shrugs)\n * @dev Implements ERC165 using a lookup table.\n */\ncontract ERC165 is IERC165 {\n    bytes4 private constant _INTERFACE_ID_ERC165 = 0x01ffc9a7;\n    /**\n     * 0x01ffc9a7 ===\n     *     bytes4(keccak256('supportsInterface(bytes4)'))\n     */\n\n    /**\n     * @dev a mapping of interface id to whether or not it's supported\n     */\n    mapping(bytes4 => bool) private _supportedInterfaces;\n\n    /**\n     * @dev A contract implementing SupportsInterfaceWithLookup\n     * implement ERC165 itself\n     */\n    constructor () internal {\n        _registerInterface(_INTERFACE_ID_ERC165);\n    }\n\n    /**\n     * @dev implement supportsInterface(bytes4) using a lookup table\n     */\n    function supportsInterface(bytes4 interfaceId) external view returns (bool) {\n        return _supportedInterfaces[interfaceId];\n    }\n\n    /**\n     * @dev internal method for registering an interface\n     */\n    function _registerInterface(bytes4 interfaceId) internal {\n        require(interfaceId != 0xffffffff);\n        _supportedInterfaces[interfaceId] = true;\n    }\n}\n\n// File: openzeppelin-solidity/contracts/token/ERC721/ERC721.sol\n\npragma solidity ^0.5.0;\n\n\n\n\n\n\n/**\n * @title ERC721 Non-Fungible Token Standard basic implementation\n * @dev see https://github.com/ethereum/EIPs/blob/master/EIPS/eip-721.md\n */\ncontract ERC721 is ERC165, IERC721 {\n    using SafeMath for uint256;\n    using Address for address;\n\n    // Equals to `bytes4(keccak256(\"onERC721Received(address,address,uint256,bytes)\"))`\n    // which can be also obtained as `IERC721Receiver(0).onERC721Received.selector`\n    bytes4 private constant _ERC721_RECEIVED = 0x150b7a02;\n\n    // Mapping from token ID to owner\n    mapping (uint256 => address) private _tokenOwner;\n\n    // Mapping from token ID to approved address\n    mapping (uint256 => address) private _tokenApprovals;\n\n    // Mapping from owner to number of owned token\n    mapping (address => uint256) private _ownedTokensCount;\n\n    // Mapping from owner to operator approvals\n    mapping (address => mapping (address => bool)) private _operatorApprovals;\n\n    bytes4 private constant _INTERFACE_ID_ERC721 = 0x80ac58cd;\n    /*\n     * 0x80ac58cd ===\n     *     bytes4(keccak256('balanceOf(address)')) ^\n     *     bytes4(keccak256('ownerOf(uint256)')) ^\n     *     bytes4(keccak256('approve(address,uint256)')) ^\n     *     bytes4(keccak256('getApproved(uint256)')) ^\n     *     bytes4(keccak256('setApprovalForAll(address,bool)')) ^\n     *     bytes4(keccak256('isApprovedForAll(address,address)')) ^\n     *     bytes4(keccak256('transferFrom(address,address,uint256)')) ^\n     *     bytes4(keccak256('safeTransferFrom(address,address,uint256)')) ^\n     *     bytes4(keccak256('safeTransferFrom(address,address,uint256,bytes)'))\n     */\n\n    constructor () public {\n        // register the supported interfaces to conform to ERC721 via ERC165\n        _registerInterface(_INTERFACE_ID_ERC721);\n    }\n\n    /**\n     * @dev Gets the balance of the specified address\n     * @param owner address to query the balance of\n     * @return uint256 representing the amount owned by the passed address\n     */\n    function balanceOf(address owner) public view returns (uint256) {\n        require(owner != address(0));\n        return _ownedTokensCount[owner];\n    }\n\n    /**\n     * @dev Gets the owner of the specified token ID\n     * @param tokenId uint256 ID of the token to query the owner of\n     * @return owner address currently marked as the owner of the given token ID\n     */\n    function ownerOf(uint256 tokenId) public view returns (address) {\n        address owner = _tokenOwner[tokenId];\n        require(owner != address(0));\n        return owner;\n    }\n\n    /**\n     * @dev Approves another address to transfer the given token ID\n     * The zero address indicates there is no approved address.\n     * There can only be one approved address per token at a given time.\n     * Can only be called by the token owner or an approved operator.\n     * @param to address to be approved for the given token ID\n     * @param tokenId uint256 ID of the token to be approved\n     */\n    function approve(address to, uint256 tokenId) public {\n        address owner = ownerOf(tokenId);\n        require(to != owner);\n        require(msg.sender == owner || isApprovedForAll(owner, msg.sender));\n\n        _tokenApprovals[tokenId] = to;\n        emit Approval(owner, to, tokenId);\n    }\n\n    /**\n     * @dev Gets the approved address for a token ID, or zero if no address set\n     * Reverts if the token ID does not exist.\n     * @param tokenId uint256 ID of the token to query the approval of\n     * @return address currently approved for the given token ID\n     */\n    function getApproved(uint256 tokenId) public view returns (address) {\n        require(_exists(tokenId));\n        return _tokenApprovals[tokenId];\n    }\n\n    /**\n     * @dev Sets or unsets the approval of a given operator\n     * An operator is allowed to transfer all tokens of the sender on their behalf\n     * @param to operator address to set the approval\n     * @param approved representing the status of the approval to be set\n     */\n    function setApprovalForAll(address to, bool approved) public {\n        require(to != msg.sender);\n        _operatorApprovals[msg.sender][to] = approved;\n        emit ApprovalForAll(msg.sender, to, approved);\n    }\n\n    /**\n     * @dev Tells whether an operator is approved by a given owner\n     * @param owner owner address which you want to query the approval of\n     * @param operator operator address which you want to query the approval of\n     * @return bool whether the given operator is approved by the given owner\n     */\n    function isApprovedForAll(address owner, address operator) public view returns (bool) {\n        return _operatorApprovals[owner][operator];\n    }\n\n    /**\n     * @dev Transfers the ownership of a given token ID to another address\n     * Usage of this method is discouraged, use `safeTransferFrom` whenever possible\n     * Requires the msg sender to be the owner, approved, or operator\n     * @param from current owner of the token\n     * @param to address to receive the ownership of the given token ID\n     * @param tokenId uint256 ID of the token to be transferred\n    */\n    function transferFrom(address from, address to, uint256 tokenId) public {\n        require(_isApprovedOrOwner(msg.sender, tokenId));\n\n        _transferFrom(from, to, tokenId);\n    }\n\n    /**\n     * @dev Safely transfers the ownership of a given token ID to another address\n     * If the target address is a contract, it must implement `onERC721Received`,\n     * which is called upon a safe transfer, and return the magic value\n     * `bytes4(keccak256(\"onERC721Received(address,address,uint256,bytes)\"))`; otherwise,\n     * the transfer is reverted.\n     *\n     * Requires the msg sender to be the owner, approved, or operator\n     * @param from current owner of the token\n     * @param to address to receive the ownership of the given token ID\n     * @param tokenId uint256 ID of the token to be transferred\n    */\n    function safeTransferFrom(address from, address to, uint256 tokenId) public {\n        safeTransferFrom(from, to, tokenId, \"\");\n    }\n\n    /**\n     * @dev Safely transfers the ownership of a given token ID to another address\n     * If the target address is a contract, it must implement `onERC721Received`,\n     * which is called upon a safe transfer, and return the magic value\n     * `bytes4(keccak256(\"onERC721Received(address,address,uint256,bytes)\"))`; otherwise,\n     * the transfer is reverted.\n     * Requires the msg sender to be the owner, approved, or operator\n     * @param from current owner of the token\n     * @param to address to receive the ownership of the given token ID\n     * @param tokenId uint256 ID of the token to be transferred\n     * @param _data bytes data to send along with a safe transfer check\n     */\n    function safeTransferFrom(address from, address to, uint256 tokenId, bytes memory _data) public {\n        transferFrom(from, to, tokenId);\n        require(_checkOnERC721Received(from, to, tokenId, _data));\n    }\n\n    /**\n     * @dev Returns whether the specified token exists\n     * @param tokenId uint256 ID of the token to query the existence of\n     * @return whether the token exists\n     */\n    function _exists(uint256 tokenId) internal view returns (bool) {\n        address owner = _tokenOwner[tokenId];\n        return owner != address(0);\n    }\n\n    /**\n     * @dev Returns whether the given spender can transfer a given token ID\n     * @param spender address of the spender to query\n     * @param tokenId uint256 ID of the token to be transferred\n     * @return bool whether the msg.sender is approved for the given token ID,\n     *    is an operator of the owner, or is the owner of the token\n     */\n    function _isApprovedOrOwner(address spender, uint256 tokenId) internal view returns (bool) {\n        address owner = ownerOf(tokenId);\n        return (spender == owner || getApproved(tokenId) == spender || isApprovedForAll(owner, spender));\n    }\n\n    /**\n     * @dev Internal function to mint a new token\n     * Reverts if the given token ID already exists\n     * @param to The address that will own the minted token\n     * @param tokenId uint256 ID of the token to be minted\n     */\n    function _mint(address to, uint256 tokenId) internal {\n        require(to != address(0));\n        require(!_exists(tokenId));\n\n        _tokenOwner[tokenId] = to;\n        _ownedTokensCount[to] = _ownedTokensCount[to].add(1);\n\n        emit Transfer(address(0), to, tokenId);\n    }\n\n    /**\n     * @dev Internal function to burn a specific token\n     * Reverts if the token does not exist\n     * Deprecated, use _burn(uint256) instead.\n     * @param owner owner of the token to burn\n     * @param tokenId uint256 ID of the token being burned\n     */\n    function _burn(address owner, uint256 tokenId) internal {\n        require(ownerOf(tokenId) == owner);\n\n        _clearApproval(tokenId);\n\n        _ownedTokensCount[owner] = _ownedTokensCount[owner].sub(1);\n        _tokenOwner[tokenId] = address(0);\n\n        emit Transfer(owner, address(0), tokenId);\n    }\n\n    /**\n     * @dev Internal function to burn a specific token\n     * Reverts if the token does not exist\n     * @param tokenId uint256 ID of the token being burned\n     */\n    function _burn(uint256 tokenId) internal {\n        _burn(ownerOf(tokenId), tokenId);\n    }\n\n    /**\n     * @dev Internal function to transfer ownership of a given token ID to another address.\n     * As opposed to transferFrom, this imposes no restrictions on msg.sender.\n     * @param from current owner of the token\n     * @param to address to receive the ownership of the given token ID\n     * @param tokenId uint256 ID of the token to be transferred\n    */\n    function _transferFrom(address from, address to, uint256 tokenId) internal {\n        require(ownerOf(tokenId) == from);\n        require(to != address(0));\n\n        _clearApproval(tokenId);\n\n        _ownedTokensCount[from] = _ownedTokensCount[from].sub(1);\n        _ownedTokensCount[to] = _ownedTokensCount[to].add(1);\n\n        _tokenOwner[tokenId] = to;\n\n        emit Transfer(from, to, tokenId);\n    }\n\n    /**\n     * @dev Internal function to invoke `onERC721Received` on a target address\n     * The call is not executed if the target address is not a contract\n     * @param from address representing the previous owner of the given token ID\n     * @param to target address that will receive the tokens\n     * @param tokenId uint256 ID of the token to be transferred\n     * @param _data bytes optional data to send along with the call\n     * @return whether the call correctly returned the expected magic value\n     */\n    function _checkOnERC721Received(address from, address to, uint256 tokenId, bytes memory _data)\n        internal returns (bool)\n    {\n        if (!to.isContract()) {\n            return true;\n        }\n\n        bytes4 retval = IERC721Receiver(to).onERC721Received(msg.sender, from, tokenId, _data);\n        return (retval == _ERC721_RECEIVED);\n    }\n\n    /**\n     * @dev Private function to clear current approval of a given token ID\n     * @param tokenId uint256 ID of the token to be transferred\n     */\n    function _clearApproval(uint256 tokenId) private {\n        if (_tokenApprovals[tokenId] != address(0)) {\n            _tokenApprovals[tokenId] = address(0);\n        }\n    }\n}\n\n// File: openzeppelin-solidity/contracts/ownership/Ownable.sol\n\npragma solidity ^0.5.0;\n\n/**\n * @title Ownable\n * @dev The Ownable contract has an owner address, and provides basic authorization control\n * functions, this simplifies the implementation of \"user permissions\".\n */\ncontract Ownable {\n    address private _owner;\n\n    event OwnershipTransferred(address indexed previousOwner, address indexed newOwner);\n\n    /**\n     * @dev The Ownable constructor sets the original `owner` of the contract to the sender\n     * account.\n     */\n    constructor () internal {\n        _owner = msg.sender;\n        emit OwnershipTransferred(address(0), _owner);\n    }\n\n    /**\n     * @return the address of the owner.\n     */\n    function owner() public view returns (address) {\n        return _owner;\n    }\n\n    /**\n     * @dev Throws if called by any account other than the owner.\n     */\n    modifier onlyOwner() {\n        require(isOwner());\n        _;\n    }\n\n    /**\n     * @return true if `msg.sender` is the owner of the contract.\n     */\n    function isOwner() public view returns (bool) {\n        return msg.sender == _owner;\n    }\n\n    /**\n     * @dev Allows the current owner to relinquish control of the contract.\n     * @notice Renouncing to ownership will leave the contract without an owner.\n     * It will not be possible to call the functions with the `onlyOwner`\n     * modifier anymore.\n     */\n    function renounceOwnership() public onlyOwner {\n        emit OwnershipTransferred(_owner, address(0));\n        _owner = address(0);\n    }\n\n    /**\n     * @dev Allows the current owner to transfer control of the contract to a newOwner.\n     * @param newOwner The address to transfer ownership to.\n     */\n    function transferOwnership(address newOwner) public onlyOwner {\n        _transferOwnership(newOwner);\n    }\n\n    /**\n     * @dev Transfers control of the contract to a newOwner.\n     * @param newOwner The address to transfer ownership to.\n     */\n    function _transferOwnership(address newOwner) internal {\n        require(newOwner != address(0));\n        emit OwnershipTransferred(_owner, newOwner);\n        _owner = newOwner;\n    }\n}\n\n// File: contracts/BaseRegistrar.sol\n\npragma solidity >=0.4.24;\n\n\n\n\n\ncontract BaseRegistrar is ERC721, Ownable {\n    uint constant public GRACE_PERIOD = 90 days;\n\n    event ControllerAdded(address indexed controller);\n    event ControllerRemoved(address indexed controller);\n    event NameMigrated(uint256 indexed id, address indexed owner, uint expires);\n    event NameRegistered(uint256 indexed id, address indexed owner, uint expires);\n    event NameRenewed(uint256 indexed id, uint expires);\n\n    // Expiration timestamp for migrated domains.\n    uint public transferPeriodEnds;\n\n    // The ENS registry\n    ENS public ens;\n\n    // The namehash of the TLD this registrar owns (eg, .eth)\n    bytes32 public baseNode;\n\n    // The interim registrar\n    HashRegistrar public previousRegistrar;\n\n    // A map of addresses that are authorised to register and renew names.\n    mapping(address=>bool) public controllers;\n\n    // Authorises a controller, who can register and renew domains.\n    function addController(address controller) external;\n\n    // Revoke controller permission for an address.\n    function removeController(address controller) external;\n\n    // Set the resolver for the TLD this registrar manages.\n    function setResolver(address resolver) external;\n\n    // Returns the expiration timestamp of the specified label hash.\n    function nameExpires(uint256 id) external view returns(uint);\n\n    // Returns true iff the specified name is available for registration.\n    function available(uint256 id) public view returns(bool);\n\n    /**\n     * @dev Register a name.\n     */\n    function register(uint256 id, address owner, uint duration) external returns(uint);\n\n    function renew(uint256 id, uint duration) external returns(uint);\n\n    /**\n     * @dev Reclaim ownership of a name in ENS, if you own it in the registrar.\n     */\n    function reclaim(uint256 id, address owner) external;\n\n    /**\n     * @dev Transfers a registration from the initial registrar.\n     * This function is called by the initial registrar when a user calls `transferRegistrars`.\n     */\n    function acceptRegistrarTransfer(bytes32 label, Deed deed, uint) external;\n}\n\n// File: contracts/BaseRegistrarImplementation.sol\n\npragma solidity ^0.5.0;\n\n\n\n\n\ncontract BaseRegistrarImplementation is BaseRegistrar {\n    // A map of expiry times\n    mapping(uint256=>uint) expiries;\n\n    uint constant public MIGRATION_LOCK_PERIOD = 28 days;\n\n    bytes4 constant private INTERFACE_META_ID = bytes4(keccak256(\"supportsInterface(bytes4)\"));\n    bytes4 constant private ERC721_ID = bytes4(\n        keccak256(\"balanceOf(uint256)\") ^\n        keccak256(\"ownerOf(uint256)\") ^\n        keccak256(\"approve(address,uint256)\") ^\n        keccak256(\"getApproved(uint256)\") ^\n        keccak256(\"setApprovalForAll(address,bool)\") ^\n        keccak256(\"isApprovedForAll(address,address)\") ^\n        keccak256(\"transferFrom(address,address,uint256)\") ^\n        keccak256(\"safeTransferFrom(address,address,uint256)\") ^\n        keccak256(\"safeTransferFrom(address,address,uint256,bytes)\")\n    );\n    bytes4 constant private RECLAIM_ID = bytes4(keccak256(\"reclaim(uint256,address)\"));\n\n    constructor(ENS _ens, HashRegistrar _previousRegistrar, bytes32 _baseNode) public {\n        // Require that people have time to transfer names over.\n        // require(_transferPeriodEnds > now + 2 * MIGRATION_LOCK_PERIOD);\n\n        ens = _ens;\n        baseNode = _baseNode;\n        previousRegistrar = _previousRegistrar;\n        transferPeriodEnds = now;\n    }\n\n    modifier live {\n        require(ens.owner(baseNode) == address(this));\n        _;\n    }\n\n    modifier onlyController {\n        require(controllers[msg.sender]);\n        _;\n    }\n\n    /**\n     * @dev Gets the owner of the specified token ID. Names become unowned\n     *      when their registration expires.\n     * @param tokenId uint256 ID of the token to query the owner of\n     * @return address currently marked as the owner of the given token ID\n     */\n    function ownerOf(uint256 tokenId) public view returns (address) {\n        require(expiries[tokenId] > now);\n        return super.ownerOf(tokenId);\n    }\n\n    // Authorises a controller, who can register and renew domains.\n    function addController(address controller) external onlyOwner {\n        controllers[controller] = true;\n        emit ControllerAdded(controller);\n    }\n\n    // Revoke controller permission for an address.\n    function removeController(address controller) external onlyOwner {\n        controllers[controller] = false;\n        emit ControllerRemoved(controller);\n    }\n\n    // Set the resolver for the TLD this registrar manages.\n    function setResolver(address resolver) external onlyOwner {\n        ens.setResolver(baseNode, resolver);\n    }\n\n    // Returns the expiration timestamp of the specified id.\n    function nameExpires(uint256 id) external view returns(uint) {\n        return expiries[id];\n    }\n\n    // Returns true iff the specified name is available for registration.\n    function available(uint256 id) public view returns(bool) {\n        // Not available if it's registered here or in its grace period.\n        if(expiries[id] + GRACE_PERIOD >= now) {\n            return false;\n        }\n        // Available if we're past the transfer period, or the name isn't\n        // registered in the legacy registrar.\n        return now > transferPeriodEnds || previousRegistrar.state(bytes32(id)) == Registrar.Mode.Open;\n    }\n\n    /**\n     * @dev Register a name.\n     */\n    function register(uint256 id, address owner, uint duration) external live onlyController returns(uint) {\n        require(available(id));\n        require(now + duration + GRACE_PERIOD > now + GRACE_PERIOD); // Prevent future overflow\n\n        expiries[id] = now + duration;\n        if(_exists(id)) {\n            // Name was previously owned, and expired\n            _burn(id);\n        }\n        _mint(owner, id);\n        ens.setSubnodeOwner(baseNode, bytes32(id), owner);\n\n        emit NameRegistered(id, owner, now + duration);\n\n        return now + duration;\n    }\n\n    function renew(uint256 id, uint duration) external live onlyController returns(uint) {\n        require(expiries[id] + GRACE_PERIOD >= now); // Name must be registered here or in grace period\n        require(expiries[id] + duration + GRACE_PERIOD > duration + GRACE_PERIOD); // Prevent future overflow\n\n        expiries[id] += duration;\n        emit NameRenewed(id, expiries[id]);\n        return expiries[id];\n    }\n\n    /**\n     * @dev Reclaim ownership of a name in ENS, if you own it in the registrar.\n     */\n    function reclaim(uint256 id, address owner) external live {\n        require(_isApprovedOrOwner(msg.sender, id));\n        ens.setSubnodeOwner(baseNode, bytes32(id), owner);\n    }\n\n    /**\n     * @dev Transfers a registration from the initial registrar.\n     * This function is called by the initial registrar when a user calls `transferRegistrars`.\n     */\n    function acceptRegistrarTransfer(bytes32 label, Deed deed, uint) external live {\n        uint256 id = uint256(label);\n\n        require(msg.sender == address(previousRegistrar));\n        require(expiries[id] == 0);\n        require(transferPeriodEnds > now);\n\n        uint registrationDate;\n        (,,registrationDate,,) = previousRegistrar.entries(label);\n        require(registrationDate < now - MIGRATION_LOCK_PERIOD);\n\n        address owner = deed.owner();\n\n        // Destroy the deed and transfer the funds back to the registrant.\n        deed.closeDeed(1000);\n\n        // Register the name\n        expiries[id] = transferPeriodEnds;\n        _mint(owner, id);\n\n        ens.setSubnodeOwner(baseNode, label, owner);\n\n        emit NameMigrated(id, owner, transferPeriodEnds);\n        emit NameRegistered(id, owner, transferPeriodEnds);\n    }\n\n    function supportsInterface(bytes4 interfaceID) external view returns (bool) {\n        return interfaceID == INTERFACE_META_ID ||\n               interfaceID == ERC721_ID ||\n               interfaceID == RECLAIM_ID;\n    }\n}",
  "sourcePath": "/Users/kevin/Dropbox/works/dev/ENS-fork/contracts/BaseRegistrarImplementation.sol",
  "compiler": {
    "name": "solc",
    "version": "0.5.1+commit.c8a2cb62.Emscripten.clang"
  },
  "schemaVersion": "3.1.0",
  "updatedAt": "2020-04-28T12:11:16.983Z",
  "networkType": "ethereum",
  "devdoc": {
    "methods": {
      "acceptRegistrarTransfer(bytes32,address,uint256)": {
        "details": "Transfers a registration from the initial registrar. This function is called by the initial registrar when a user calls `transferRegistrars`."
      },
      "approve(address,uint256)": {
        "details": "Approves another address to transfer the given token ID The zero address indicates there is no approved address. There can only be one approved address per token at a given time. Can only be called by the token owner or an approved operator.",
        "params": {
          "to": "address to be approved for the given token ID",
          "tokenId": "uint256 ID of the token to be approved"
        }
      },
      "balanceOf(address)": {
        "details": "Gets the balance of the specified address",
        "params": {
          "owner": "address to query the balance of"
        },
        "return": "uint256 representing the amount owned by the passed address"
      },
      "getApproved(uint256)": {
        "details": "Gets the approved address for a token ID, or zero if no address set Reverts if the token ID does not exist.",
        "params": {
          "tokenId": "uint256 ID of the token to query the approval of"
        },
        "return": "address currently approved for the given token ID"
      },
      "isApprovedForAll(address,address)": {
        "details": "Tells whether an operator is approved by a given owner",
        "params": {
          "operator": "operator address which you want to query the approval of",
          "owner": "owner address which you want to query the approval of"
        },
        "return": "bool whether the given operator is approved by the given owner"
      },
      "isOwner()": {
        "return": "true if `msg.sender` is the owner of the contract."
      },
      "owner()": {
        "return": "the address of the owner."
      },
      "ownerOf(uint256)": {
        "details": "Gets the owner of the specified token ID. Names become unowned     when their registration expires.",
        "params": {
          "tokenId": "uint256 ID of the token to query the owner of"
        },
        "return": "address currently marked as the owner of the given token ID"
      },
      "reclaim(uint256,address)": {
        "details": "Reclaim ownership of a name in ENS, if you own it in the registrar."
      },
      "register(uint256,address,uint256)": {
        "details": "Register a name."
      },
      "renounceOwnership()": {
        "details": "Allows the current owner to relinquish control of the contract."
      },
      "safeTransferFrom(address,address,uint256)": {
        "details": "Safely transfers the ownership of a given token ID to another address If the target address is a contract, it must implement `onERC721Received`, which is called upon a safe transfer, and return the magic value `bytes4(keccak256(\"onERC721Received(address,address,uint256,bytes)\"))`; otherwise, the transfer is reverted.     * Requires the msg sender to be the owner, approved, or operator",
        "params": {
          "from": "current owner of the token",
          "to": "address to receive the ownership of the given token ID",
          "tokenId": "uint256 ID of the token to be transferred"
        }
      },
      "safeTransferFrom(address,address,uint256,bytes)": {
        "details": "Safely transfers the ownership of a given token ID to another address If the target address is a contract, it must implement `onERC721Received`, which is called upon a safe transfer, and return the magic value `bytes4(keccak256(\"onERC721Received(address,address,uint256,bytes)\"))`; otherwise, the transfer is reverted. Requires the msg sender to be the owner, approved, or operator",
        "params": {
          "_data": "bytes data to send along with a safe transfer check",
          "from": "current owner of the token",
          "to": "address to receive the ownership of the given token ID",
          "tokenId": "uint256 ID of the token to be transferred"
        }
      },
      "setApprovalForAll(address,bool)": {
        "details": "Sets or unsets the approval of a given operator An operator is allowed to transfer all tokens of the sender on their behalf",
        "params": {
          "approved": "representing the status of the approval to be set",
          "to": "operator address to set the approval"
        }
      },
      "transferFrom(address,address,uint256)": {
        "details": "Transfers the ownership of a given token ID to another address Usage of this method is discouraged, use `safeTransferFrom` whenever possible Requires the msg sender to be the owner, approved, or operator",
        "params": {
          "from": "current owner of the token",
          "to": "address to receive the ownership of the given token ID",
          "tokenId": "uint256 ID of the token to be transferred"
        }
      },
      "transferOwnership(address)": {
        "details": "Allows the current owner to transfer control of the contract to a newOwner.",
        "params": {
          "newOwner": "The address to transfer ownership to."
        }
      }
    }
  },
  "userdoc": {
    "methods": {
      "renounceOwnership()": {
        "notice": "Renouncing to ownership will leave the contract without an owner. It will not be possible to call the functions with the `onlyOwner` modifier anymore."
      }
    }
  }
}