{
  "contractName": "OwnedResolver",
  "abi": [
    {
      "anonymous": false,
      "inputs": [
        {
          "indexed": true,
          "internalType": "bytes32",
          "name": "node",
          "type": "bytes32"
        },
        {
          "indexed": true,
          "internalType": "uint256",
          "name": "contentType",
          "type": "uint256"
        }
      ],
      "name": "ABIChanged",
      "type": "event"
    },
    {
      "anonymous": false,
      "inputs": [
        {
          "indexed": true,
          "internalType": "bytes32",
          "name": "node",
          "type": "bytes32"
        },
        {
          "indexed": false,
          "internalType": "address",
          "name": "a",
          "type": "address"
        }
      ],
      "name": "AddrChanged",
      "type": "event"
    },
    {
      "anonymous": false,
      "inputs": [
        {
          "indexed": true,
          "internalType": "bytes32",
          "name": "node",
          "type": "bytes32"
        },
        {
          "indexed": false,
          "internalType": "uint256",
          "name": "coinType",
          "type": "uint256"
        },
        {
          "indexed": false,
          "internalType": "bytes",
          "name": "newAddress",
          "type": "bytes"
        }
      ],
      "name": "AddressChanged",
      "type": "event"
    },
    {
      "anonymous": false,
      "inputs": [
        {
          "indexed": true,
          "internalType": "bytes32",
          "name": "node",
          "type": "bytes32"
        },
        {
          "indexed": false,
          "internalType": "bytes",
          "name": "hash",
          "type": "bytes"
        }
      ],
      "name": "ContenthashChanged",
      "type": "event"
    },
    {
      "anonymous": false,
      "inputs": [
        {
          "indexed": true,
          "internalType": "bytes32",
          "name": "node",
          "type": "bytes32"
        },
        {
          "indexed": true,
          "internalType": "bytes4",
          "name": "interfaceID",
          "type": "bytes4"
        },
        {
          "indexed": false,
          "internalType": "address",
          "name": "implementer",
          "type": "address"
        }
      ],
      "name": "InterfaceChanged",
      "type": "event"
    },
    {
      "anonymous": false,
      "inputs": [
        {
          "indexed": true,
          "internalType": "bytes32",
          "name": "node",
          "type": "bytes32"
        },
        {
          "indexed": false,
          "internalType": "string",
          "name": "name",
          "type": "string"
        }
      ],
      "name": "NameChanged",
      "type": "event"
    },
    {
      "anonymous": false,
      "inputs": [
        {
          "indexed": true,
          "internalType": "address",
          "name": "previousOwner",
          "type": "address"
        },
        {
          "indexed": true,
          "internalType": "address",
          "name": "newOwner",
          "type": "address"
        }
      ],
      "name": "OwnershipTransferred",
      "type": "event"
    },
    {
      "anonymous": false,
      "inputs": [
        {
          "indexed": true,
          "internalType": "bytes32",
          "name": "node",
          "type": "bytes32"
        },
        {
          "indexed": false,
          "internalType": "bytes32",
          "name": "x",
          "type": "bytes32"
        },
        {
          "indexed": false,
          "internalType": "bytes32",
          "name": "y",
          "type": "bytes32"
        }
      ],
      "name": "PubkeyChanged",
      "type": "event"
    },
    {
      "anonymous": false,
      "inputs": [
        {
          "indexed": true,
          "internalType": "bytes32",
          "name": "node",
          "type": "bytes32"
        },
        {
          "indexed": true,
          "internalType": "string",
          "name": "indexedKey",
          "type": "string"
        },
        {
          "indexed": false,
          "internalType": "string",
          "name": "key",
          "type": "string"
        }
      ],
      "name": "TextChanged",
      "type": "event"
    },
    {
      "constant": true,
      "inputs": [
        {
          "internalType": "bytes32",
          "name": "node",
          "type": "bytes32"
        },
        {
          "internalType": "uint256",
          "name": "contentTypes",
          "type": "uint256"
        }
      ],
      "name": "ABI",
      "outputs": [
        {
          "internalType": "uint256",
          "name": "",
          "type": "uint256"
        },
        {
          "internalType": "bytes",
          "name": "",
          "type": "bytes"
        }
      ],
      "payable": false,
      "stateMutability": "view",
      "type": "function"
    },
    {
      "constant": true,
      "inputs": [
        {
          "internalType": "bytes32",
          "name": "node",
          "type": "bytes32"
        }
      ],
      "name": "addr",
      "outputs": [
        {
          "internalType": "address payable",
          "name": "",
          "type": "address"
        }
      ],
      "payable": false,
      "stateMutability": "view",
      "type": "function"
    },
    {
      "constant": true,
      "inputs": [
        {
          "internalType": "bytes32",
          "name": "node",
          "type": "bytes32"
        },
        {
          "internalType": "uint256",
          "name": "coinType",
          "type": "uint256"
        }
      ],
      "name": "addr",
      "outputs": [
        {
          "internalType": "bytes",
          "name": "",
          "type": "bytes"
        }
      ],
      "payable": false,
      "stateMutability": "view",
      "type": "function"
    },
    {
      "constant": true,
      "inputs": [
        {
          "internalType": "bytes32",
          "name": "node",
          "type": "bytes32"
        }
      ],
      "name": "contenthash",
      "outputs": [
        {
          "internalType": "bytes",
          "name": "",
          "type": "bytes"
        }
      ],
      "payable": false,
      "stateMutability": "view",
      "type": "function"
    },
    {
      "constant": true,
      "inputs": [
        {
          "internalType": "bytes32",
          "name": "node",
          "type": "bytes32"
        },
        {
          "internalType": "bytes4",
          "name": "interfaceID",
          "type": "bytes4"
        }
      ],
      "name": "interfaceImplementer",
      "outputs": [
        {
          "internalType": "address",
          "name": "",
          "type": "address"
        }
      ],
      "payable": false,
      "stateMutability": "view",
      "type": "function"
    },
    {
      "constant": true,
      "inputs": [],
      "name": "isOwner",
      "outputs": [
        {
          "internalType": "bool",
          "name": "",
          "type": "bool"
        }
      ],
      "payable": false,
      "stateMutability": "view",
      "type": "function"
    },
    {
      "constant": true,
      "inputs": [
        {
          "internalType": "bytes32",
          "name": "node",
          "type": "bytes32"
        }
      ],
      "name": "name",
      "outputs": [
        {
          "internalType": "string",
          "name": "",
          "type": "string"
        }
      ],
      "payable": false,
      "stateMutability": "view",
      "type": "function"
    },
    {
      "constant": true,
      "inputs": [],
      "name": "owner",
      "outputs": [
        {
          "internalType": "address",
          "name": "",
          "type": "address"
        }
      ],
      "payable": false,
      "stateMutability": "view",
      "type": "function"
    },
    {
      "constant": true,
      "inputs": [
        {
          "internalType": "bytes32",
          "name": "node",
          "type": "bytes32"
        }
      ],
      "name": "pubkey",
      "outputs": [
        {
          "internalType": "bytes32",
          "name": "x",
          "type": "bytes32"
        },
        {
          "internalType": "bytes32",
          "name": "y",
          "type": "bytes32"
        }
      ],
      "payable": false,
      "stateMutability": "view",
      "type": "function"
    },
    {
      "constant": false,
      "inputs": [],
      "name": "renounceOwnership",
      "outputs": [],
      "payable": false,
      "stateMutability": "nonpayable",
      "type": "function"
    },
    {
      "constant": false,
      "inputs": [
        {
          "internalType": "bytes32",
          "name": "node",
          "type": "bytes32"
        },
        {
          "internalType": "uint256",
          "name": "contentType",
          "type": "uint256"
        },
        {
          "internalType": "bytes",
          "name": "data",
          "type": "bytes"
        }
      ],
      "name": "setABI",
      "outputs": [],
      "payable": false,
      "stateMutability": "nonpayable",
      "type": "function"
    },
    {
      "constant": false,
      "inputs": [
        {
          "internalType": "bytes32",
          "name": "node",
          "type": "bytes32"
        },
        {
          "internalType": "uint256",
          "name": "coinType",
          "type": "uint256"
        },
        {
          "internalType": "bytes",
          "name": "a",
          "type": "bytes"
        }
      ],
      "name": "setAddr",
      "outputs": [],
      "payable": false,
      "stateMutability": "nonpayable",
      "type": "function"
    },
    {
      "constant": false,
      "inputs": [
        {
          "internalType": "bytes32",
          "name": "node",
          "type": "bytes32"
        },
        {
          "internalType": "address",
          "name": "a",
          "type": "address"
        }
      ],
      "name": "setAddr",
      "outputs": [],
      "payable": false,
      "stateMutability": "nonpayable",
      "type": "function"
    },
    {
      "constant": false,
      "inputs": [
        {
          "internalType": "bytes32",
          "name": "node",
          "type": "bytes32"
        },
        {
          "internalType": "bytes",
          "name": "hash",
          "type": "bytes"
        }
      ],
      "name": "setContenthash",
      "outputs": [],
      "payable": false,
      "stateMutability": "nonpayable",
      "type": "function"
    },
    {
      "constant": false,
      "inputs": [
        {
          "internalType": "bytes32",
          "name": "node",
          "type": "bytes32"
        },
        {
          "internalType": "bytes4",
          "name": "interfaceID",
          "type": "bytes4"
        },
        {
          "internalType": "address",
          "name": "implementer",
          "type": "address"
        }
      ],
      "name": "setInterface",
      "outputs": [],
      "payable": false,
      "stateMutability": "nonpayable",
      "type": "function"
    },
    {
      "constant": false,
      "inputs": [
        {
          "internalType": "bytes32",
          "name": "node",
          "type": "bytes32"
        },
        {
          "internalType": "string",
          "name": "name",
          "type": "string"
        }
      ],
      "name": "setName",
      "outputs": [],
      "payable": false,
      "stateMutability": "nonpayable",
      "type": "function"
    },
    {
      "constant": false,
      "inputs": [
        {
          "internalType": "bytes32",
          "name": "node",
          "type": "bytes32"
        },
        {
          "internalType": "bytes32",
          "name": "x",
          "type": "bytes32"
        },
        {
          "internalType": "bytes32",
          "name": "y",
          "type": "bytes32"
        }
      ],
      "name": "setPubkey",
      "outputs": [],
      "payable": false,
      "stateMutability": "nonpayable",
      "type": "function"
    },
    {
      "constant": false,
      "inputs": [
        {
          "internalType": "bytes32",
          "name": "node",
          "type": "bytes32"
        },
        {
          "internalType": "string",
          "name": "key",
          "type": "string"
        },
        {
          "internalType": "string",
          "name": "value",
          "type": "string"
        }
      ],
      "name": "setText",
      "outputs": [],
      "payable": false,
      "stateMutability": "nonpayable",
      "type": "function"
    },
    {
      "constant": true,
      "inputs": [
        {
          "internalType": "bytes4",
          "name": "interfaceID",
          "type": "bytes4"
        }
      ],
      "name": "supportsInterface",
      "outputs": [
        {
          "internalType": "bool",
          "name": "",
          "type": "bool"
        }
      ],
      "payable": false,
      "stateMutability": "pure",
      "type": "function"
    },
    {
      "constant": true,
      "inputs": [
        {
          "internalType": "bytes32",
          "name": "node",
          "type": "bytes32"
        },
        {
          "internalType": "string",
          "name": "key",
          "type": "string"
        }
      ],
      "name": "text",
      "outputs": [
        {
          "internalType": "string",
          "name": "",
          "type": "string"
        }
      ],
      "payable": false,
      "stateMutability": "view",
      "type": "function"
    },
    {
      "constant": false,
      "inputs": [
        {
          "internalType": "address",
          "name": "newOwner",
          "type": "address"
        }
      ],
      "name": "transferOwnership",
      "outputs": [],
      "payable": false,
      "stateMutability": "nonpayable",
      "type": "function"
    }
  ],
  "bytecode": "0x6080604052336000806101000a81548173ffffffffffffffffffffffffffffffffffffffff021916908373ffffffffffffffffffffffffffffffffffffffff1602179055506000809054906101000a900473ffffffffffffffffffffffffffffffffffffffff1673ffffffffffffffffffffffffffffffffffffffff16600073ffffffffffffffffffffffffffffffffffffffff167f8be0079c531659141344cd1fd0a4f28419497f9722a3daafe3b4186f6b6457e060405160405180910390a36123f3806100cf6000396000f3fe608060405234801561001057600080fd5b50600436106101375760003560e01c8063715018a6116100b8578063bc1c58d11161007c578063bc1c58d1146108f3578063c86902331461099a578063d5fa2b00146109e3578063e59d895d14610a31578063f1cb7e0614610aa8578063f2fde38b14610b5957610137565b8063715018a61461072b57806377372213146107355780638b95dd71146107b85780638da5cb5b146108875780638f32d59b146108d157610137565b8063304e6ade116100ff578063304e6ade1461040a5780633b3b57de1461048d57806359d1d43c146104fb578063623195b0146105f7578063691f34311461068457610137565b806301ffc9a71461013c57806310f13a8c146101a1578063124a319c146102795780632203ab561461031057806329cd62ea146103c8575b600080fd5b6101876004803603602081101561015257600080fd5b8101908080357bffffffffffffffffffffffffffffffffffffffffffffffffffffffff19169060200190929190505050610b9d565b604051808215151515815260200191505060405180910390f35b610277600480360360608110156101b757600080fd5b8101908080359060200190929190803590602001906401000000008111156101de57600080fd5b8201836020820111156101f057600080fd5b8035906020019184600183028401116401000000008311171561021257600080fd5b90919293919293908035906020019064010000000081111561023357600080fd5b82018360208201111561024557600080fd5b8035906020019184600183028401116401000000008311171561026757600080fd5b9091929391929390505050610bfe565b005b6102ce6004803603604081101561028f57600080fd5b810190808035906020019092919080357bffffffffffffffffffffffffffffffffffffffffffffffffffffffff19169060200190929190505050610ce4565b604051808273ffffffffffffffffffffffffffffffffffffffff1673ffffffffffffffffffffffffffffffffffffffff16815260200191505060405180910390f35b6103466004803603604081101561032657600080fd5b8101908080359060200190929190803590602001909291905050506111e1565b6040518083815260200180602001828103825283818151815260200191508051906020019080838360005b8381101561038c578082015181840152602081019050610371565b50505050905090810190601f1680156103b95780820380516001836020036101000a031916815260200191505b50935050505060405180910390f35b610408600480360360608110156103de57600080fd5b81019080803590602001909291908035906020019092919080359060200190929190505050611331565b005b61048b6004803603604081101561042057600080fd5b81019080803590602001909291908035906020019064010000000081111561044757600080fd5b82018360208201111561045957600080fd5b8035906020019184600183028401116401000000008311171561047b57600080fd5b90919293919293905050506113c9565b005b6104b9600480360360208110156104a357600080fd5b8101908080359060200190929190505050611469565b604051808273ffffffffffffffffffffffffffffffffffffffff1673ffffffffffffffffffffffffffffffffffffffff16815260200191505060405180910390f35b61057c6004803603604081101561051157600080fd5b81019080803590602001909291908035906020019064010000000081111561053857600080fd5b82018360208201111561054a57600080fd5b8035906020019184600183028401116401000000008311171561056c57600080fd5b90919293919293905050506114a0565b6040518080602001828103825283818151815260200191508051906020019080838360005b838110156105bc5780820151818401526020810190506105a1565b50505050905090810190601f1680156105e95780820380516001836020036101000a031916815260200191505b509250505060405180910390f35b6106826004803603606081101561060d57600080fd5b8101908080359060200190929190803590602001909291908035906020019064010000000081111561063e57600080fd5b82018360208201111561065057600080fd5b8035906020019184600183028401116401000000008311171561067257600080fd5b909192939192939050505061157c565b005b6106b06004803603602081101561069a57600080fd5b810190808035906020019092919050505061160a565b6040518080602001828103825283818151815260200191508051906020019080838360005b838110156106f05780820151818401526020810190506106d5565b50505050905090810190601f16801561071d5780820380516001836020036101000a031916815260200191505b509250505060405180910390f35b6107336116bf565b005b6107b66004803603604081101561074b57600080fd5b81019080803590602001909291908035906020019064010000000081111561077257600080fd5b82018360208201111561078457600080fd5b803590602001918460018302840111640100000000831117156107a657600080fd5b909192939192939050505061178f565b005b610885600480360360608110156107ce57600080fd5b810190808035906020019092919080359060200190929190803590602001906401000000008111156107ff57600080fd5b82018360208201111561081157600080fd5b8035906020019184600183028401116401000000008311171561083357600080fd5b91908080601f016020809104026020016040519081016040528093929190818152602001838380828437600081840152601f19601f82011690508083019250505050505050919291929050505061182f565b005b61088f61199c565b604051808273ffffffffffffffffffffffffffffffffffffffff1673ffffffffffffffffffffffffffffffffffffffff16815260200191505060405180910390f35b6108d96119c5565b604051808215151515815260200191505060405180910390f35b61091f6004803603602081101561090957600080fd5b8101908080359060200190929190505050611a1c565b6040518080602001828103825283818151815260200191508051906020019080838360005b8381101561095f578082015181840152602081019050610944565b50505050905090810190601f16801561098c5780820380516001836020036101000a031916815260200191505b509250505060405180910390f35b6109c6600480360360208110156109b057600080fd5b8101908080359060200190929190505050611ad1565b604051808381526020018281526020019250505060405180910390f35b610a2f600480360360408110156109f957600080fd5b8101908080359060200190929190803573ffffffffffffffffffffffffffffffffffffffff169060200190929190505050611b0b565b005b610aa660048036036060811015610a4757600080fd5b810190808035906020019092919080357bffffffffffffffffffffffffffffffffffffffffffffffffffffffff19169060200190929190803573ffffffffffffffffffffffffffffffffffffffff169060200190929190505050611b37565b005b610ade60048036036040811015610abe57600080fd5b810190808035906020019092919080359060200190929190505050611c75565b6040518080602001828103825283818151815260200191508051906020019080838360005b83811015610b1e578082015181840152602081019050610b03565b50505050905090810190601f168015610b4b5780820380516001836020036101000a031916815260200191505b509250505060405180910390f35b610b9b60048036036020811015610b6f57600080fd5b81019080803573ffffffffffffffffffffffffffffffffffffffff169060200190929190505050611d3c565b005b60006359d1d43c60e01b7bffffffffffffffffffffffffffffffffffffffffffffffffffffffff1916827bffffffffffffffffffffffffffffffffffffffffffffffffffffffff19161480610bf75750610bf682611d59565b5b9050919050565b84610c0881611dba565b610c1157600080fd5b828260076000898152602001908152602001600020878760405180838380828437808301925050509250505090815260200160405180910390209190610c589291906121f5565b5084846040518083838082843780830192505050925050506040518091039020867fd8c9334b1a9c2f9da342a0a2b32629c1a229b6445dad78947f674b44444a7550878760405180806020018281038252848482818152602001925080828437600081840152601f19601f820116905080830192505050935050505060405180910390a3505050505050565b600080600460008581526020019081526020016000206000847bffffffffffffffffffffffffffffffffffffffffffffffffffffffff19167bffffffffffffffffffffffffffffffffffffffffffffffffffffffff1916815260200190815260200160002060009054906101000a900473ffffffffffffffffffffffffffffffffffffffff169050600073ffffffffffffffffffffffffffffffffffffffff168173ffffffffffffffffffffffffffffffffffffffff1614610da957809150506111db565b6000610db485611469565b9050600073ffffffffffffffffffffffffffffffffffffffff168173ffffffffffffffffffffffffffffffffffffffff161415610df6576000925050506111db565b600060608273ffffffffffffffffffffffffffffffffffffffff166301ffc9a760e01b60405160240180827bffffffffffffffffffffffffffffffffffffffffffffffffffffffff19167bffffffffffffffffffffffffffffffffffffffffffffffffffffffff191681526020019150506040516020818303038152906040527f01ffc9a7000000000000000000000000000000000000000000000000000000007bffffffffffffffffffffffffffffffffffffffffffffffffffffffff19166020820180517bffffffffffffffffffffffffffffffffffffffffffffffffffffffff83818316178352505050506040518082805190602001908083835b60208310610f175780518252602082019150602081019050602083039250610ef4565b6001836020036101000a038019825116818451168082178552505050505050905001915050600060405180830381855afa9150503d8060008114610f77576040519150601f19603f3d011682016040523d82523d6000602084013e610f7c565b606091505b5091509150811580610f8f575060208151105b80610fd65750600060f81b81601f81518110610fa757fe5b602001015160f81c60f81b7effffffffffffffffffffffffffffffffffffffffffffffffffffffffffffff1916145b15610fe85760009450505050506111db565b8273ffffffffffffffffffffffffffffffffffffffff168660405160240180827bffffffffffffffffffffffffffffffffffffffffffffffffffffffff19167bffffffffffffffffffffffffffffffffffffffffffffffffffffffff191681526020019150506040516020818303038152906040527f01ffc9a7000000000000000000000000000000000000000000000000000000007bffffffffffffffffffffffffffffffffffffffffffffffffffffffff19166020820180517bffffffffffffffffffffffffffffffffffffffffffffffffffffffff83818316178352505050506040518082805190602001908083835b602083106110fe57805182526020820191506020810190506020830392506110db565b6001836020036101000a038019825116818451168082178552505050505050905001915050600060405180830381855afa9150503d806000811461115e576040519150601f19603f3d011682016040523d82523d6000602084013e611163565b606091505b50809250819350505081158061117a575060208151105b806111c15750600060f81b81601f8151811061119257fe5b602001015160f81c60f81b7effffffffffffffffffffffffffffffffffffffffffffffffffffffffffffff1916145b156111d35760009450505050506111db565b829450505050505b92915050565b6000606060006001600086815260200190815260200160002090506000600190505b84811161130e5760008582161415801561124357506000826000838152602001908152602001600020805460018160011615610100020316600290049050115b156113025780826000838152602001908152602001600020808054600181600116156101000203166002900480601f0160208091040260200160405190810160405280929190818152602001828054600181600116156101000203166002900480156112f05780601f106112c5576101008083540402835291602001916112f0565b820191906000526020600020905b8154815290600101906020018083116112d357829003601f168201915b5050505050905093509350505061132a565b600181901b9050611203565b5060006040518060200160405280600081525081915092509250505b9250929050565b8261133b81611dba565b61134457600080fd5b604051806040016040528084815260200183815250600660008681526020019081526020016000206000820151816000015560208201518160010155905050837f1d6f5e03d3f63eb58751986629a5439baee5079ff04f345becb66e23eb154e468484604051808381526020018281526020019250505060405180910390a250505050565b826113d381611dba565b6113dc57600080fd5b82826003600087815260200190815260200160002091906113fe929190612275565b50837fe379c1624ed7e714cc0937528a32359d69d5281337765313dba4e081b72d7578848460405180806020018281038252848482818152602001925080828437600081840152601f19601f820116905080830192505050935050505060405180910390a250505050565b6000606061147883603c611c75565b905060008151141561148e57600091505061149b565b61149781611df9565b9150505b919050565b606060076000858152602001908152602001600020838360405180838380828437808301925050509250505090815260200160405180910390208054600181600116156101000203166002900480601f01602080910402602001604051908101604052809291908181526020018280546001816001161561010002031660029004801561156e5780601f106115435761010080835404028352916020019161156e565b820191906000526020600020905b81548152906001019060200180831161155157829003601f168201915b505050505090509392505050565b8361158681611dba565b61158f57600080fd5b6000846001860316146115a157600080fd5b828260016000888152602001908152602001600020600087815260200190815260200160002091906115d4929190612275565b5083857faa121bbeef5f32f5961a2a28966e769023910fc9479059ee3495d4c1a696efe360405160405180910390a35050505050565b6060600560008381526020019081526020016000208054600181600116156101000203166002900480601f0160208091040260200160405190810160405280929190818152602001828054600181600116156101000203166002900480156116b35780601f10611688576101008083540402835291602001916116b3565b820191906000526020600020905b81548152906001019060200180831161169657829003601f168201915b50505050509050919050565b6116c76119c5565b6116d057600080fd5b600073ffffffffffffffffffffffffffffffffffffffff166000809054906101000a900473ffffffffffffffffffffffffffffffffffffffff1673ffffffffffffffffffffffffffffffffffffffff167f8be0079c531659141344cd1fd0a4f28419497f9722a3daafe3b4186f6b6457e060405160405180910390a360008060006101000a81548173ffffffffffffffffffffffffffffffffffffffff021916908373ffffffffffffffffffffffffffffffffffffffff160217905550565b8261179981611dba565b6117a257600080fd5b82826005600087815260200190815260200160002091906117c49291906121f5565b50837fb7d29e911041e8d9b843369e890bcb72c9388692ba48b65ac54e7214c4c348f7848460405180806020018281038252848482818152602001925080828437600081840152601f19601f820116905080830192505050935050505060405180910390a250505050565b8261183981611dba565b61184257600080fd5b837f65412581168e88a1e60c6459d7f44ae83ad0832e670826c05a4e2476b57af75284846040518083815260200180602001828103825283818151815260200191508051906020019080838360005b838110156118ac578082015181840152602081019050611891565b50505050905090810190601f1680156118d95780820380516001836020036101000a031916815260200191505b50935050505060405180910390a2603c83141561195d57837f52d7d861f09ab3d26239d492e8968629f95e9e318cf0b73bfddc441522a15fd261191b84611df9565b604051808273ffffffffffffffffffffffffffffffffffffffff1673ffffffffffffffffffffffffffffffffffffffff16815260200191505060405180910390a25b8160026000868152602001908152602001600020600085815260200190815260200160002090805190602001906119959291906122f5565b5050505050565b60008060009054906101000a900473ffffffffffffffffffffffffffffffffffffffff16905090565b60008060009054906101000a900473ffffffffffffffffffffffffffffffffffffffff1673ffffffffffffffffffffffffffffffffffffffff163373ffffffffffffffffffffffffffffffffffffffff1614905090565b6060600360008381526020019081526020016000208054600181600116156101000203166002900480601f016020809104026020016040519081016040528092919081815260200182805460018160011615610100020316600290048015611ac55780601f10611a9a57610100808354040283529160200191611ac5565b820191906000526020600020905b815481529060010190602001808311611aa857829003601f168201915b50505050509050919050565b6000806006600084815260200190815260200160002060000154600660008581526020019081526020016000206001015491509150915091565b81611b1581611dba565b611b1e57600080fd5b611b3283603c611b2d85611e1c565b61182f565b505050565b82611b4181611dba565b611b4a57600080fd5b81600460008681526020019081526020016000206000857bffffffffffffffffffffffffffffffffffffffffffffffffffffffff19167bffffffffffffffffffffffffffffffffffffffffffffffffffffffff1916815260200190815260200160002060006101000a81548173ffffffffffffffffffffffffffffffffffffffff021916908373ffffffffffffffffffffffffffffffffffffffff160217905550827bffffffffffffffffffffffffffffffffffffffffffffffffffffffff1916847f7c69f06bea0bdef565b709e93a147836b0063ba2dd89f02d0b7e8d931e6a6daa84604051808273ffffffffffffffffffffffffffffffffffffffff1673ffffffffffffffffffffffffffffffffffffffff16815260200191505060405180910390a350505050565b60606002600084815260200190815260200160002060008381526020019081526020016000208054600181600116156101000203166002900480601f016020809104026020016040519081016040528092919081815260200182805460018160011615610100020316600290048015611d2f5780601f10611d0457610100808354040283529160200191611d2f565b820191906000526020600020905b815481529060010190602001808311611d1257829003601f168201915b5050505050905092915050565b611d446119c5565b611d4d57600080fd5b611d5681611e67565b50565b600063c869023360e01b7bffffffffffffffffffffffffffffffffffffffffffffffffffffffff1916827bffffffffffffffffffffffffffffffffffffffffffffffffffffffff19161480611db35750611db282611f5f565b5b9050919050565b6000611dc461199c565b73ffffffffffffffffffffffffffffffffffffffff163373ffffffffffffffffffffffffffffffffffffffff16149050919050565b60006014825114611e0957600080fd5b600c6101000a6020830151049050919050565b606060146040519080825280601f01601f191660200182016040528015611e525781602001600182028038833980820191505090505b509050600c6101000a82026020820152919050565b600073ffffffffffffffffffffffffffffffffffffffff168173ffffffffffffffffffffffffffffffffffffffff161415611ea157600080fd5b8073ffffffffffffffffffffffffffffffffffffffff166000809054906101000a900473ffffffffffffffffffffffffffffffffffffffff1673ffffffffffffffffffffffffffffffffffffffff167f8be0079c531659141344cd1fd0a4f28419497f9722a3daafe3b4186f6b6457e060405160405180910390a3806000806101000a81548173ffffffffffffffffffffffffffffffffffffffff021916908373ffffffffffffffffffffffffffffffffffffffff16021790555050565b600063691f343160e01b7bffffffffffffffffffffffffffffffffffffffffffffffffffffffff1916827bffffffffffffffffffffffffffffffffffffffffffffffffffffffff19161480611fb95750611fb882611fc0565b5b9050919050565b6000604051808061239b60249139602401905060405180910390207bffffffffffffffffffffffffffffffffffffffffffffffffffffffff1916827bffffffffffffffffffffffffffffffffffffffffffffffffffffffff1916148061202b575061202a82612032565b5b9050919050565b600063bc1c58d160e01b7bffffffffffffffffffffffffffffffffffffffffffffffffffffffff1916827bffffffffffffffffffffffffffffffffffffffffffffffffffffffff1916148061208c575061208b82612093565b5b9050919050565b6000633b3b57de60e01b7bffffffffffffffffffffffffffffffffffffffffffffffffffffffff1916827bffffffffffffffffffffffffffffffffffffffffffffffffffffffff1916148061212c575063f1cb7e0660e01b7bffffffffffffffffffffffffffffffffffffffffffffffffffffffff1916827bffffffffffffffffffffffffffffffffffffffffffffffffffffffff1916145b8061213c575061213b82612143565b5b9050919050565b6000632203ab5660e01b7bffffffffffffffffffffffffffffffffffffffffffffffffffffffff1916827bffffffffffffffffffffffffffffffffffffffffffffffffffffffff1916148061219d575061219c826121a4565b5b9050919050565b60006301ffc9a760e01b7bffffffffffffffffffffffffffffffffffffffffffffffffffffffff1916827bffffffffffffffffffffffffffffffffffffffffffffffffffffffff1916149050919050565b828054600181600116156101000203166002900490600052602060002090601f016020900481019282601f1061223657803560ff1916838001178555612264565b82800160010185558215612264579182015b82811115612263578235825591602001919060010190612248565b5b5090506122719190612375565b5090565b828054600181600116156101000203166002900490600052602060002090601f016020900481019282601f106122b657803560ff19168380011785556122e4565b828001600101855582156122e4579182015b828111156122e35782358255916020019190600101906122c8565b5b5090506122f19190612375565b5090565b828054600181600116156101000203166002900490600052602060002090601f016020900481019282601f1061233657805160ff1916838001178555612364565b82800160010185558215612364579182015b82811115612363578251825591602001919060010190612348565b5b5090506123719190612375565b5090565b61239791905b8082111561239357600081600090555060010161237b565b5090565b9056fe696e74657266616365496d706c656d656e74657228627974657333322c62797465733429a265627a7a723158202b15c8ed78b55b2a54ebef340e64cf856360e378c7eb93889ebbd5c06b09008964736f6c63430005100032",
  "source": "/**\n *Submitted for verification at Etherscan.io on 2020-01-30\n*/\n\n// File: openzeppelin-solidity/contracts/ownership/Ownable.sol\n\npragma solidity ^0.5.0;\n\n/**\n * @title Ownable\n * @dev The Ownable contract has an owner address, and provides basic authorization control\n * functions, this simplifies the implementation of \"user permissions\".\n */\ncontract Ownable {\n    address private _owner;\n\n    event OwnershipTransferred(address indexed previousOwner, address indexed newOwner);\n\n    /**\n     * @dev The Ownable constructor sets the original `owner` of the contract to the sender\n     * account.\n     */\n    constructor () internal {\n        _owner = msg.sender;\n        emit OwnershipTransferred(address(0), _owner);\n    }\n\n    /**\n     * @return the address of the owner.\n     */\n    function owner() public view returns (address) {\n        return _owner;\n    }\n\n    /**\n     * @dev Throws if called by any account other than the owner.\n     */\n    modifier onlyOwner() {\n        require(isOwner());\n        _;\n    }\n\n    /**\n     * @return true if `msg.sender` is the owner of the contract.\n     */\n    function isOwner() public view returns (bool) {\n        return msg.sender == _owner;\n    }\n\n    /**\n     * @dev Allows the current owner to relinquish control of the contract.\n     * @notice Renouncing to ownership will leave the contract without an owner.\n     * It will not be possible to call the functions with the `onlyOwner`\n     * modifier anymore.\n     */\n    function renounceOwnership() public onlyOwner {\n        emit OwnershipTransferred(_owner, address(0));\n        _owner = address(0);\n    }\n\n    /**\n     * @dev Allows the current owner to transfer control of the contract to a newOwner.\n     * @param newOwner The address to transfer ownership to.\n     */\n    function transferOwnership(address newOwner) public onlyOwner {\n        _transferOwnership(newOwner);\n    }\n\n    /**\n     * @dev Transfers control of the contract to a newOwner.\n     * @param newOwner The address to transfer ownership to.\n     */\n    function _transferOwnership(address newOwner) internal {\n        require(newOwner != address(0));\n        emit OwnershipTransferred(_owner, newOwner);\n        _owner = newOwner;\n    }\n}\n\n// File: @ensdomains/resolver/contracts/ResolverBase.sol\n\npragma solidity ^0.5.0;\n\ncontract ResolverBase {\n    bytes4 private constant INTERFACE_META_ID = 0x01ffc9a7;\n\n    function supportsInterface(bytes4 interfaceID) public pure returns(bool) {\n        return interfaceID == INTERFACE_META_ID;\n    }\n\n    function isAuthorised(bytes32 node) internal view returns(bool);\n\n    modifier authorised(bytes32 node) {\n        require(isAuthorised(node));\n        _;\n    }\n\n    function bytesToAddress(bytes memory b) internal pure returns(address payable a) {\n        require(b.length == 20);\n        assembly {\n            a := div(mload(add(b, 32)), exp(256, 12))\n        }\n    }\n\n    function addressToBytes(address a) internal pure returns(bytes memory b) {\n        b = new bytes(20);\n        assembly {\n            mstore(add(b, 32), mul(a, exp(256, 12)))\n        }\n    }\n}\n\n// File: @ensdomains/resolver/contracts/profiles/ABIResolver.sol\n\npragma solidity ^0.5.0;\n\n\ncontract ABIResolver is ResolverBase {\n    bytes4 constant private ABI_INTERFACE_ID = 0x2203ab56;\n\n    event ABIChanged(bytes32 indexed node, uint256 indexed contentType);\n\n    mapping(bytes32=>mapping(uint256=>bytes)) abis;\n\n    /**\n     * Sets the ABI associated with an ENS node.\n     * Nodes may have one ABI of each content type. To remove an ABI, set it to\n     * the empty string.\n     * @param node The node to update.\n     * @param contentType The content type of the ABI\n     * @param data The ABI data.\n     */\n    function setABI(bytes32 node, uint256 contentType, bytes calldata data) external authorised(node) {\n        // Content types must be powers of 2\n        require(((contentType - 1) & contentType) == 0);\n\n        abis[node][contentType] = data;\n        emit ABIChanged(node, contentType);\n    }\n\n    /**\n     * Returns the ABI associated with an ENS node.\n     * Defined in EIP205.\n     * @param node The ENS node to query\n     * @param contentTypes A bitwise OR of the ABI formats accepted by the caller.\n     * @return contentType The content type of the return value\n     * @return data The ABI data\n     */\n    function ABI(bytes32 node, uint256 contentTypes) external view returns (uint256, bytes memory) {\n        mapping(uint256=>bytes) storage abiset = abis[node];\n\n        for (uint256 contentType = 1; contentType <= contentTypes; contentType <<= 1) {\n            if ((contentType & contentTypes) != 0 && abiset[contentType].length > 0) {\n                return (contentType, abiset[contentType]);\n            }\n        }\n\n        return (0, bytes(\"\"));\n    }\n\n    function supportsInterface(bytes4 interfaceID) public pure returns(bool) {\n        return interfaceID == ABI_INTERFACE_ID || super.supportsInterface(interfaceID);\n    }\n}\n\n// File: @ensdomains/resolver/contracts/profiles/AddrResolver.sol\n\npragma solidity ^0.5.0;\n\n\ncontract AddrResolver is ResolverBase {\n    bytes4 constant private ADDR_INTERFACE_ID = 0x3b3b57de;\n    bytes4 constant private ADDRESS_INTERFACE_ID = 0xf1cb7e06;\n    uint constant private COIN_TYPE_ETH = 60;\n\n    event AddrChanged(bytes32 indexed node, address a);\n    event AddressChanged(bytes32 indexed node, uint coinType, bytes newAddress);\n\n    mapping(bytes32=>mapping(uint=>bytes)) _addresses;\n\n    /**\n     * Sets the address associated with an ENS node.\n     * May only be called by the owner of that node in the ENS registry.\n     * @param node The node to update.\n     * @param a The address to set.\n     */\n    function setAddr(bytes32 node, address a) external authorised(node) {\n        setAddr(node, COIN_TYPE_ETH, addressToBytes(a));\n    }\n\n    /**\n     * Returns the address associated with an ENS node.\n     * @param node The ENS node to query.\n     * @return The associated address.\n     */\n    function addr(bytes32 node) public view returns (address payable) {\n        bytes memory a = addr(node, COIN_TYPE_ETH);\n        if(a.length == 0) {\n            return address(0);\n        }\n        return bytesToAddress(a);\n    }\n\n    function setAddr(bytes32 node, uint coinType, bytes memory a) public authorised(node) {\n        emit AddressChanged(node, coinType, a);\n        if(coinType == COIN_TYPE_ETH) {\n            emit AddrChanged(node, bytesToAddress(a));\n        }\n        _addresses[node][coinType] = a;\n    }\n\n    function addr(bytes32 node, uint coinType) public view returns(bytes memory) {\n        return _addresses[node][coinType];\n    }\n\n    function supportsInterface(bytes4 interfaceID) public pure returns(bool) {\n        return interfaceID == ADDR_INTERFACE_ID || interfaceID == ADDRESS_INTERFACE_ID || super.supportsInterface(interfaceID);\n    }\n}\n\n// File: @ensdomains/resolver/contracts/profiles/ContentHashResolver.sol\n\npragma solidity ^0.5.0;\n\n\ncontract ContentHashResolver is ResolverBase {\n    bytes4 constant private CONTENT_HASH_INTERFACE_ID = 0xbc1c58d1;\n\n    event ContenthashChanged(bytes32 indexed node, bytes hash);\n\n    mapping(bytes32=>bytes) hashes;\n\n    /**\n     * Sets the contenthash associated with an ENS node.\n     * May only be called by the owner of that node in the ENS registry.\n     * @param node The node to update.\n     * @param hash The contenthash to set\n     */\n    function setContenthash(bytes32 node, bytes calldata hash) external authorised(node) {\n        hashes[node] = hash;\n        emit ContenthashChanged(node, hash);\n    }\n\n    /**\n     * Returns the contenthash associated with an ENS node.\n     * @param node The ENS node to query.\n     * @return The associated contenthash.\n     */\n    function contenthash(bytes32 node) external view returns (bytes memory) {\n        return hashes[node];\n    }\n\n    function supportsInterface(bytes4 interfaceID) public pure returns(bool) {\n        return interfaceID == CONTENT_HASH_INTERFACE_ID || super.supportsInterface(interfaceID);\n    }\n}\n\n// File: @ensdomains/resolver/contracts/profiles/InterfaceResolver.sol\n\npragma solidity ^0.5.0;\n\n\n\ncontract InterfaceResolver is ResolverBase, AddrResolver {\n    bytes4 constant private INTERFACE_INTERFACE_ID = bytes4(keccak256(\"interfaceImplementer(bytes32,bytes4)\"));\n    bytes4 private constant INTERFACE_META_ID = 0x01ffc9a7;\n\n    event InterfaceChanged(bytes32 indexed node, bytes4 indexed interfaceID, address implementer);\n\n    mapping(bytes32=>mapping(bytes4=>address)) interfaces;\n\n    /**\n     * Sets an interface associated with a name.\n     * Setting the address to 0 restores the default behaviour of querying the contract at `addr()` for interface support.\n     * @param node The node to update.\n     * @param interfaceID The EIP 168 interface ID.\n     * @param implementer The address of a contract that implements this interface for this node.\n     */\n    function setInterface(bytes32 node, bytes4 interfaceID, address implementer) external authorised(node) {\n        interfaces[node][interfaceID] = implementer;\n        emit InterfaceChanged(node, interfaceID, implementer);\n    }\n\n    /**\n     * Returns the address of a contract that implements the specified interface for this name.\n     * If an implementer has not been set for this interfaceID and name, the resolver will query\n     * the contract at `addr()`. If `addr()` is set, a contract exists at that address, and that\n     * contract implements EIP168 and returns `true` for the specified interfaceID, its address\n     * will be returned.\n     * @param node The ENS node to query.\n     * @param interfaceID The EIP 168 interface ID to check for.\n     * @return The address that implements this interface, or 0 if the interface is unsupported.\n     */\n    function interfaceImplementer(bytes32 node, bytes4 interfaceID) external view returns (address) {\n        address implementer = interfaces[node][interfaceID];\n        if(implementer != address(0)) {\n            return implementer;\n        }\n\n        address a = addr(node);\n        if(a == address(0)) {\n            return address(0);\n        }\n\n        (bool success, bytes memory returnData) = a.staticcall(abi.encodeWithSignature(\"supportsInterface(bytes4)\", INTERFACE_META_ID));\n        if(!success || returnData.length < 32 || returnData[31] == 0) {\n            // EIP 168 not supported by target\n            return address(0);\n        }\n\n        (success, returnData) = a.staticcall(abi.encodeWithSignature(\"supportsInterface(bytes4)\", interfaceID));\n        if(!success || returnData.length < 32 || returnData[31] == 0) {\n            // Specified interface not supported by target\n            return address(0);\n        }\n\n        return a;\n    }\n\n    function supportsInterface(bytes4 interfaceID) public pure returns(bool) {\n        return interfaceID == INTERFACE_INTERFACE_ID || super.supportsInterface(interfaceID);\n    }\n}\n\n// File: @ensdomains/resolver/contracts/profiles/NameResolver.sol\n\npragma solidity ^0.5.0;\n\n\ncontract NameResolver is ResolverBase {\n    bytes4 constant private NAME_INTERFACE_ID = 0x691f3431;\n\n    event NameChanged(bytes32 indexed node, string name);\n\n    mapping(bytes32=>string) names;\n\n    /**\n     * Sets the name associated with an ENS node, for reverse records.\n     * May only be called by the owner of that node in the ENS registry.\n     * @param node The node to update.\n     * @param name The name to set.\n     */\n    function setName(bytes32 node, string calldata name) external authorised(node) {\n        names[node] = name;\n        emit NameChanged(node, name);\n    }\n\n    /**\n     * Returns the name associated with an ENS node, for reverse records.\n     * Defined in EIP181.\n     * @param node The ENS node to query.\n     * @return The associated name.\n     */\n    function name(bytes32 node) external view returns (string memory) {\n        return names[node];\n    }\n\n    function supportsInterface(bytes4 interfaceID) public pure returns(bool) {\n        return interfaceID == NAME_INTERFACE_ID || super.supportsInterface(interfaceID);\n    }\n}\n\n// File: @ensdomains/resolver/contracts/profiles/PubkeyResolver.sol\n\npragma solidity ^0.5.0;\n\n\ncontract PubkeyResolver is ResolverBase {\n    bytes4 constant private PUBKEY_INTERFACE_ID = 0xc8690233;\n\n    event PubkeyChanged(bytes32 indexed node, bytes32 x, bytes32 y);\n\n    struct PublicKey {\n        bytes32 x;\n        bytes32 y;\n    }\n\n    mapping(bytes32=>PublicKey) pubkeys;\n\n    /**\n     * Sets the SECP256k1 public key associated with an ENS node.\n     * @param node The ENS node to query\n     * @param x the X coordinate of the curve point for the public key.\n     * @param y the Y coordinate of the curve point for the public key.\n     */\n    function setPubkey(bytes32 node, bytes32 x, bytes32 y) external authorised(node) {\n        pubkeys[node] = PublicKey(x, y);\n        emit PubkeyChanged(node, x, y);\n    }\n\n    /**\n     * Returns the SECP256k1 public key associated with an ENS node.\n     * Defined in EIP 619.\n     * @param node The ENS node to query\n     * @return x, y the X and Y coordinates of the curve point for the public key.\n     */\n    function pubkey(bytes32 node) external view returns (bytes32 x, bytes32 y) {\n        return (pubkeys[node].x, pubkeys[node].y);\n    }\n\n    function supportsInterface(bytes4 interfaceID) public pure returns(bool) {\n        return interfaceID == PUBKEY_INTERFACE_ID || super.supportsInterface(interfaceID);\n    }\n}\n\n// File: @ensdomains/resolver/contracts/profiles/TextResolver.sol\n\npragma solidity ^0.5.0;\n\n\ncontract TextResolver is ResolverBase {\n    bytes4 constant private TEXT_INTERFACE_ID = 0x59d1d43c;\n\n    event TextChanged(bytes32 indexed node, string indexed indexedKey, string key);\n\n    mapping(bytes32=>mapping(string=>string)) texts;\n\n    /**\n     * Sets the text data associated with an ENS node and key.\n     * May only be called by the owner of that node in the ENS registry.\n     * @param node The node to update.\n     * @param key The key to set.\n     * @param value The text data value to set.\n     */\n    function setText(bytes32 node, string calldata key, string calldata value) external authorised(node) {\n        texts[node][key] = value;\n        emit TextChanged(node, key, key);\n    }\n\n    /**\n     * Returns the text data associated with an ENS node and key.\n     * @param node The ENS node to query.\n     * @param key The text data key to query.\n     * @return The associated text data.\n     */\n    function text(bytes32 node, string calldata key) external view returns (string memory) {\n        return texts[node][key];\n    }\n\n    function supportsInterface(bytes4 interfaceID) public pure returns(bool) {\n        return interfaceID == TEXT_INTERFACE_ID || super.supportsInterface(interfaceID);\n    }\n}\n\n// File: @ensdomains/resolver/contracts/OwnedResolver.sol\n\npragma solidity ^0.5.0;\n\n\n\n\n\n\n\n\n\n/**\n * A simple resolver anyone can use; only allows the owner of a node to set its\n * address.\n */\ncontract OwnedResolver is Ownable, ABIResolver, AddrResolver, ContentHashResolver, InterfaceResolver, NameResolver, PubkeyResolver, TextResolver {\n    function isAuthorised(bytes32 node) internal view returns(bool) {\n        return msg.sender == owner();\n    }\n}",
  "sourcePath": "/Users/kevin/Dropbox/works/dev/ENS-fork/contracts/OwnedResolver.sol",
  "compiler": {
    "name": "solc",
    "version": "0.5.16+commit.9c3226ce.Emscripten.clang"
  },
  "schemaVersion": "3.1.0",
  "updatedAt": "2020-04-28T08:49:03.799Z",
  "devdoc": {
    "methods": {
      "ABI(bytes32,uint256)": {
        "params": {
          "contentTypes": "A bitwise OR of the ABI formats accepted by the caller.",
          "node": "The ENS node to query"
        },
        "return": "contentType The content type of the return valuedata The ABI data"
      },
      "addr(bytes32)": {
        "params": {
          "node": "The ENS node to query."
        },
        "return": "The associated address."
      },
      "contenthash(bytes32)": {
        "params": {
          "node": "The ENS node to query."
        },
        "return": "The associated contenthash."
      },
      "interfaceImplementer(bytes32,bytes4)": {
        "params": {
          "interfaceID": "The EIP 168 interface ID to check for.",
          "node": "The ENS node to query."
        },
        "return": "The address that implements this interface, or 0 if the interface is unsupported."
      },
      "isOwner()": {
        "return": "true if `msg.sender` is the owner of the contract."
      },
      "name(bytes32)": {
        "params": {
          "node": "The ENS node to query."
        },
        "return": "The associated name."
      },
      "owner()": {
        "return": "the address of the owner."
      },
      "pubkey(bytes32)": {
        "params": {
          "node": "The ENS node to query"
        },
        "return": "x, y the X and Y coordinates of the curve point for the public key."
      },
      "renounceOwnership()": {
        "details": "Allows the current owner to relinquish control of the contract."
      },
      "setABI(bytes32,uint256,bytes)": {
        "params": {
          "contentType": "The content type of the ABI",
          "data": "The ABI data.",
          "node": "The node to update."
        }
      },
      "setAddr(bytes32,address)": {
        "params": {
          "a": "The address to set.",
          "node": "The node to update."
        }
      },
      "setContenthash(bytes32,bytes)": {
        "params": {
          "hash": "The contenthash to set",
          "node": "The node to update."
        }
      },
      "setInterface(bytes32,bytes4,address)": {
        "params": {
          "implementer": "The address of a contract that implements this interface for this node.",
          "interfaceID": "The EIP 168 interface ID.",
          "node": "The node to update."
        }
      },
      "setName(bytes32,string)": {
        "params": {
          "name": "The name to set.",
          "node": "The node to update."
        }
      },
      "setPubkey(bytes32,bytes32,bytes32)": {
        "params": {
          "node": "The ENS node to query",
          "x": "the X coordinate of the curve point for the public key.",
          "y": "the Y coordinate of the curve point for the public key."
        }
      },
      "setText(bytes32,string,string)": {
        "params": {
          "key": "The key to set.",
          "node": "The node to update.",
          "value": "The text data value to set."
        }
      },
      "text(bytes32,string)": {
        "params": {
          "key": "The text data key to query.",
          "node": "The ENS node to query."
        },
        "return": "The associated text data."
      },
      "transferOwnership(address)": {
        "details": "Allows the current owner to transfer control of the contract to a newOwner.",
        "params": {
          "newOwner": "The address to transfer ownership to."
        }
      }
    }
  },
  "userdoc": {
    "methods": {
      "ABI(bytes32,uint256)": {
        "notice": "Returns the ABI associated with an ENS node. Defined in EIP205."
      },
      "addr(bytes32)": {
        "notice": "Returns the address associated with an ENS node."
      },
      "contenthash(bytes32)": {
        "notice": "Returns the contenthash associated with an ENS node."
      },
      "interfaceImplementer(bytes32,bytes4)": {
        "notice": "Returns the address of a contract that implements the specified interface for this name. If an implementer has not been set for this interfaceID and name, the resolver will query the contract at `addr()`. If `addr()` is set, a contract exists at that address, and that contract implements EIP168 and returns `true` for the specified interfaceID, its address will be returned."
      },
      "name(bytes32)": {
        "notice": "Returns the name associated with an ENS node, for reverse records. Defined in EIP181."
      },
      "pubkey(bytes32)": {
        "notice": "Returns the SECP256k1 public key associated with an ENS node. Defined in EIP 619."
      },
      "renounceOwnership()": {
        "notice": "Renouncing to ownership will leave the contract without an owner. It will not be possible to call the functions with the `onlyOwner` modifier anymore."
      },
      "setABI(bytes32,uint256,bytes)": {
        "notice": "Sets the ABI associated with an ENS node. Nodes may have one ABI of each content type. To remove an ABI, set it to the empty string."
      },
      "setAddr(bytes32,address)": {
        "notice": "Sets the address associated with an ENS node. May only be called by the owner of that node in the ENS registry."
      },
      "setContenthash(bytes32,bytes)": {
        "notice": "Sets the contenthash associated with an ENS node. May only be called by the owner of that node in the ENS registry."
      },
      "setInterface(bytes32,bytes4,address)": {
        "notice": "Sets an interface associated with a name. Setting the address to 0 restores the default behaviour of querying the contract at `addr()` for interface support."
      },
      "setName(bytes32,string)": {
        "notice": "Sets the name associated with an ENS node, for reverse records. May only be called by the owner of that node in the ENS registry."
      },
      "setPubkey(bytes32,bytes32,bytes32)": {
        "notice": "Sets the SECP256k1 public key associated with an ENS node."
      },
      "setText(bytes32,string,string)": {
        "notice": "Sets the text data associated with an ENS node and key. May only be called by the owner of that node in the ENS registry."
      },
      "text(bytes32,string)": {
        "notice": "Returns the text data associated with an ENS node and key."
      }
    },
    "notice": "A simple resolver anyone can use; only allows the owner of a node to set its address."
  }
}