{
  "contractName": "SimplePriceOracle",
  "abi": [
    {
      "constant": false,
      "inputs": [],
      "name": "renounceOwnership",
      "outputs": [],
      "payable": false,
      "stateMutability": "nonpayable",
      "type": "function"
    },
    {
      "constant": true,
      "inputs": [],
      "name": "owner",
      "outputs": [
        {
          "name": "",
          "type": "address"
        }
      ],
      "payable": false,
      "stateMutability": "view",
      "type": "function"
    },
    {
      "constant": true,
      "inputs": [],
      "name": "isOwner",
      "outputs": [
        {
          "name": "",
          "type": "bool"
        }
      ],
      "payable": false,
      "stateMutability": "view",
      "type": "function"
    },
    {
      "constant": false,
      "inputs": [
        {
          "name": "newOwner",
          "type": "address"
        }
      ],
      "name": "transferOwnership",
      "outputs": [],
      "payable": false,
      "stateMutability": "nonpayable",
      "type": "function"
    },
    {
      "constant": true,
      "inputs": [],
      "name": "rentPrice",
      "outputs": [
        {
          "name": "",
          "type": "uint256"
        }
      ],
      "payable": false,
      "stateMutability": "view",
      "type": "function"
    },
    {
      "inputs": [
        {
          "name": "_rentPrice",
          "type": "uint256"
        }
      ],
      "payable": false,
      "stateMutability": "nonpayable",
      "type": "constructor"
    },
    {
      "anonymous": false,
      "inputs": [
        {
          "indexed": false,
          "name": "price",
          "type": "uint256"
        }
      ],
      "name": "RentPriceChanged",
      "type": "event"
    },
    {
      "anonymous": false,
      "inputs": [
        {
          "indexed": true,
          "name": "previousOwner",
          "type": "address"
        },
        {
          "indexed": true,
          "name": "newOwner",
          "type": "address"
        }
      ],
      "name": "OwnershipTransferred",
      "type": "event"
    },
    {
      "constant": false,
      "inputs": [
        {
          "name": "_rentPrice",
          "type": "uint256"
        }
      ],
      "name": "setPrice",
      "outputs": [],
      "payable": false,
      "stateMutability": "nonpayable",
      "type": "function"
    },
    {
      "constant": true,
      "inputs": [
        {
          "name": "",
          "type": "string"
        },
        {
          "name": "",
          "type": "uint256"
        },
        {
          "name": "duration",
          "type": "uint256"
        }
      ],
      "name": "price",
      "outputs": [
        {
          "name": "",
          "type": "uint256"
        }
      ],
      "payable": false,
      "stateMutability": "view",
      "type": "function"
    }
  ],
  "bytecode": "0x608060405234801561001057600080fd5b506040516020806107b88339810180604052602081101561003057600080fd5b8101908080519060200190929190505050336000806101000a81548173ffffffffffffffffffffffffffffffffffffffff021916908373ffffffffffffffffffffffffffffffffffffffff1602179055506000809054906101000a900473ffffffffffffffffffffffffffffffffffffffff1673ffffffffffffffffffffffffffffffffffffffff16600073ffffffffffffffffffffffffffffffffffffffff167f8be0079c531659141344cd1fd0a4f28419497f9722a3daafe3b4186f6b6457e060405160405180910390a36101158161011b640100000000026401000000009004565b506101d5565b61013261017e640100000000026401000000009004565b151561013d57600080fd5b806001819055507f0b72f3e11c5de918a6d97fb006e47dcf1e9c2f5771378189a012faecdc7e63a1816040518082815260200191505060405180910390a150565b60008060009054906101000a900473ffffffffffffffffffffffffffffffffffffffff1673ffffffffffffffffffffffffffffffffffffffff163373ffffffffffffffffffffffffffffffffffffffff1614905090565b6105d4806101e46000396000f3fe60806040526004361061007d576000357c01000000000000000000000000000000000000000000000000000000009004806350e9a71514610082578063715018a6146101305780638da5cb5b146101475780638f32d59b1461019e57806391b7f5ed146101cd578063f2fde38b14610208578063f8af64ed14610259575b600080fd5b34801561008e57600080fd5b5061011a600480360360608110156100a557600080fd5b81019080803590602001906401000000008111156100c257600080fd5b8201836020820111156100d457600080fd5b803590602001918460018302840111640100000000831117156100f657600080fd5b90919293919293908035906020019092919080359060200190929190505050610284565b6040518082815260200191505060405180910390f35b34801561013c57600080fd5b506101456102a5565b005b34801561015357600080fd5b5061015c610377565b604051808273ffffffffffffffffffffffffffffffffffffffff1673ffffffffffffffffffffffffffffffffffffffff16815260200191505060405180910390f35b3480156101aa57600080fd5b506101b36103a0565b604051808215151515815260200191505060405180910390f35b3480156101d957600080fd5b50610206600480360360208110156101f057600080fd5b81019080803590602001909291905050506103f7565b005b34801561021457600080fd5b506102576004803603602081101561022b57600080fd5b81019080803573ffffffffffffffffffffffffffffffffffffffff16906020019092919050505061044b565b005b34801561026557600080fd5b5061026e61046a565b6040518082815260200191505060405180910390f35b600061029b6001548361047090919063ffffffff16565b9050949350505050565b6102ad6103a0565b15156102b857600080fd5b600073ffffffffffffffffffffffffffffffffffffffff166000809054906101000a900473ffffffffffffffffffffffffffffffffffffffff1673ffffffffffffffffffffffffffffffffffffffff167f8be0079c531659141344cd1fd0a4f28419497f9722a3daafe3b4186f6b6457e060405160405180910390a360008060006101000a81548173ffffffffffffffffffffffffffffffffffffffff021916908373ffffffffffffffffffffffffffffffffffffffff160217905550565b60008060009054906101000a900473ffffffffffffffffffffffffffffffffffffffff16905090565b60008060009054906101000a900473ffffffffffffffffffffffffffffffffffffffff1673ffffffffffffffffffffffffffffffffffffffff163373ffffffffffffffffffffffffffffffffffffffff1614905090565b6103ff6103a0565b151561040a57600080fd5b806001819055507f0b72f3e11c5de918a6d97fb006e47dcf1e9c2f5771378189a012faecdc7e63a1816040518082815260200191505060405180910390a150565b6104536103a0565b151561045e57600080fd5b610467816104ae565b50565b60015481565b60008083141561048357600090506104a8565b6000828402905082848281151561049657fe5b041415156104a357600080fd5b809150505b92915050565b600073ffffffffffffffffffffffffffffffffffffffff168173ffffffffffffffffffffffffffffffffffffffff16141515156104ea57600080fd5b8073ffffffffffffffffffffffffffffffffffffffff166000809054906101000a900473ffffffffffffffffffffffffffffffffffffffff1673ffffffffffffffffffffffffffffffffffffffff167f8be0079c531659141344cd1fd0a4f28419497f9722a3daafe3b4186f6b6457e060405160405180910390a3806000806101000a81548173ffffffffffffffffffffffffffffffffffffffff021916908373ffffffffffffffffffffffffffffffffffffffff1602179055505056fea165627a7a723058203fb859082c574270fc77c8d092976525ee65c894bb9664e538e2371a185a98860029",
  "source": "pragma solidity ^0.5.0;\n\npragma solidity >=0.4.24;\n\ninterface PriceOracle {\n    /**\n     * @dev Returns the price to register or renew a name.\n     * @param name The name being registered or renewed.\n     * @param expires When the name presently expires (0 if this is a new registration).\n     * @param duration How long the name is being registered or extended for, in seconds.\n     * @return The price of this renewal or registration, in wei.\n     */\n    function price(string calldata name, uint expires, uint duration) external view returns(uint);\n}\npragma solidity >=0.4.24;\n\n/**\n * @title SafeMath\n * @dev Unsigned math operations with safety checks that revert on error\n */\nlibrary SafeMath {\n    /**\n    * @dev Multiplies two unsigned integers, reverts on overflow.\n    */\n    function mul(uint256 a, uint256 b) internal pure returns (uint256) {\n        // Gas optimization: this is cheaper than requiring 'a' not being zero, but the\n        // benefit is lost if 'b' is also tested.\n        // See: https://github.com/OpenZeppelin/openzeppelin-solidity/pull/522\n        if (a == 0) {\n            return 0;\n        }\n\n        uint256 c = a * b;\n        require(c / a == b);\n\n        return c;\n    }\n\n    /**\n    * @dev Integer division of two unsigned integers truncating the quotient, reverts on division by zero.\n    */\n    function div(uint256 a, uint256 b) internal pure returns (uint256) {\n        // Solidity only automatically asserts when dividing by 0\n        require(b > 0);\n        uint256 c = a / b;\n        // assert(a == b * c + a % b); // There is no case in which this doesn't hold\n\n        return c;\n    }\n\n    /**\n    * @dev Subtracts two unsigned integers, reverts on overflow (i.e. if subtrahend is greater than minuend).\n    */\n    function sub(uint256 a, uint256 b) internal pure returns (uint256) {\n        require(b <= a);\n        uint256 c = a - b;\n\n        return c;\n    }\n\n    /**\n    * @dev Adds two unsigned integers, reverts on overflow.\n    */\n    function add(uint256 a, uint256 b) internal pure returns (uint256) {\n        uint256 c = a + b;\n        require(c >= a);\n\n        return c;\n    }\n\n    /**\n    * @dev Divides two unsigned integers and returns the remainder (unsigned integer modulo),\n    * reverts when dividing by zero.\n    */\n    function mod(uint256 a, uint256 b) internal pure returns (uint256) {\n        require(b != 0);\n        return a % b;\n    }\n}\npragma solidity ^0.5.0;\n\n/**\n * @title Ownable\n * @dev The Ownable contract has an owner address, and provides basic authorization control\n * functions, this simplifies the implementation of \"user permissions\".\n */\ncontract Ownable {\n    address private _owner;\n\n    event OwnershipTransferred(address indexed previousOwner, address indexed newOwner);\n\n    /**\n     * @dev The Ownable constructor sets the original `owner` of the contract to the sender\n     * account.\n     */\n    constructor () internal {\n        _owner = msg.sender;\n        emit OwnershipTransferred(address(0), _owner);\n    }\n\n    /**\n     * @return the address of the owner.\n     */\n    function owner() public view returns (address) {\n        return _owner;\n    }\n\n    /**\n     * @dev Throws if called by any account other than the owner.\n     */\n    modifier onlyOwner() {\n        require(isOwner());\n        _;\n    }\n\n    /**\n     * @return true if `msg.sender` is the owner of the contract.\n     */\n    function isOwner() public view returns (bool) {\n        return msg.sender == _owner;\n    }\n\n    /**\n     * @dev Allows the current owner to relinquish control of the contract.\n     * @notice Renouncing to ownership will leave the contract without an owner.\n     * It will not be possible to call the functions with the `onlyOwner`\n     * modifier anymore.\n     */\n    function renounceOwnership() public onlyOwner {\n        emit OwnershipTransferred(_owner, address(0));\n        _owner = address(0);\n    }\n\n    /**\n     * @dev Allows the current owner to transfer control of the contract to a newOwner.\n     * @param newOwner The address to transfer ownership to.\n     */\n    function transferOwnership(address newOwner) public onlyOwner {\n        _transferOwnership(newOwner);\n    }\n\n    /**\n     * @dev Transfers control of the contract to a newOwner.\n     * @param newOwner The address to transfer ownership to.\n     */\n    function _transferOwnership(address newOwner) internal {\n        require(newOwner != address(0));\n        emit OwnershipTransferred(_owner, newOwner);\n        _owner = newOwner;\n    }\n}\n\ncontract SimplePriceOracle is Ownable, PriceOracle {\n    using SafeMath for *;\n\n    // Rent in wei per second\n    uint public rentPrice;\n\n    event RentPriceChanged(uint price);\n\n    constructor(uint _rentPrice) public {\n        setPrice(_rentPrice);\n    }\n\n    function setPrice(uint _rentPrice) public onlyOwner {\n        rentPrice = _rentPrice;\n        emit RentPriceChanged(_rentPrice);\n    }\n\n    /**\n     * @dev Returns the price to register or renew a name.\n     * @param duration How long the name is being registered or extended for, in seconds.\n     * @return The price of this renewal or registration, in wei.\n     */\n    function price(string calldata /*name*/, uint /*expires*/, uint duration) external view returns(uint) {\n        return duration.mul(rentPrice);\n    }\n}",
  "sourcePath": "/Users/kevin/Dropbox/works/dev/ENS-fork/contracts/SimplePriceOracle.sol",
  "compiler": {
    "name": "solc",
    "version": "0.5.1+commit.c8a2cb62.Emscripten.clang"
  },
  "schemaVersion": "3.1.0",
  "updatedAt": "2020-05-14T10:28:17.919Z",
  "devdoc": {
    "methods": {
      "isOwner()": {
        "return": "true if `msg.sender` is the owner of the contract."
      },
      "owner()": {
        "return": "the address of the owner."
      },
      "price(string,uint256,uint256)": {
        "details": "Returns the price to register or renew a name.",
        "params": {
          "duration": "How long the name is being registered or extended for, in seconds."
        },
        "return": "The price of this renewal or registration, in wei."
      },
      "renounceOwnership()": {
        "details": "Allows the current owner to relinquish control of the contract."
      },
      "transferOwnership(address)": {
        "details": "Allows the current owner to transfer control of the contract to a newOwner.",
        "params": {
          "newOwner": "The address to transfer ownership to."
        }
      }
    }
  },
  "userdoc": {
    "methods": {
      "renounceOwnership()": {
        "notice": "Renouncing to ownership will leave the contract without an owner. It will not be possible to call the functions with the `onlyOwner` modifier anymore."
      }
    }
  }
}